{
  "contractName": "Duality",
  "abi": [
    {
      "inputs": [],
      "stateMutability": "nonpayable",
      "type": "constructor"
    },
    {
      "anonymous": false,
      "inputs": [
        {
          "indexed": true,
          "internalType": "address",
          "name": "account",
          "type": "address"
        },
        {
          "indexed": true,
          "internalType": "address",
          "name": "sender",
          "type": "address"
        }
      ],
      "name": "AdminApproved",
      "type": "event"
    },
    {
      "anonymous": false,
      "inputs": [
        {
          "indexed": true,
          "internalType": "address",
          "name": "account",
          "type": "address"
        },
        {
          "indexed": true,
          "internalType": "address",
          "name": "sender",
          "type": "address"
        }
      ],
      "name": "AdminRevoked",
      "type": "event"
    },
    {
      "anonymous": false,
      "inputs": [
        {
          "indexed": true,
          "internalType": "address",
          "name": "account",
          "type": "address"
        },
        {
          "indexed": true,
          "internalType": "address",
          "name": "operator",
          "type": "address"
        },
        {
          "indexed": false,
          "internalType": "bool",
          "name": "approved",
          "type": "bool"
        }
      ],
      "name": "ApprovalForAll",
      "type": "event"
    },
    {
      "anonymous": false,
      "inputs": [
        {
          "indexed": true,
          "internalType": "address",
          "name": "previousOwner",
          "type": "address"
        },
        {
          "indexed": true,
          "internalType": "address",
          "name": "newOwner",
          "type": "address"
        }
      ],
      "name": "OwnershipTransferred",
      "type": "event"
    },
    {
      "anonymous": false,
      "inputs": [
        {
          "indexed": true,
          "internalType": "address",
          "name": "operator",
          "type": "address"
        },
        {
          "indexed": true,
          "internalType": "address",
          "name": "from",
          "type": "address"
        },
        {
          "indexed": true,
          "internalType": "address",
          "name": "to",
          "type": "address"
        },
        {
          "indexed": false,
          "internalType": "uint256[]",
          "name": "ids",
          "type": "uint256[]"
        },
        {
          "indexed": false,
          "internalType": "uint256[]",
          "name": "values",
          "type": "uint256[]"
        }
      ],
      "name": "TransferBatch",
      "type": "event"
    },
    {
      "anonymous": false,
      "inputs": [
        {
          "indexed": true,
          "internalType": "address",
          "name": "operator",
          "type": "address"
        },
        {
          "indexed": true,
          "internalType": "address",
          "name": "from",
          "type": "address"
        },
        {
          "indexed": true,
          "internalType": "address",
          "name": "to",
          "type": "address"
        },
        {
          "indexed": false,
          "internalType": "uint256",
          "name": "id",
          "type": "uint256"
        },
        {
          "indexed": false,
          "internalType": "uint256",
          "name": "value",
          "type": "uint256"
        }
      ],
      "name": "TransferSingle",
      "type": "event"
    },
    {
      "anonymous": false,
      "inputs": [
        {
          "indexed": false,
          "internalType": "string",
          "name": "value",
          "type": "string"
        },
        {
          "indexed": true,
          "internalType": "uint256",
          "name": "id",
          "type": "uint256"
        }
      ],
      "name": "URI",
      "type": "event"
    },
    {
      "inputs": [],
      "name": "_ashContract",
      "outputs": [
        {
          "internalType": "address",
          "name": "",
          "type": "address"
        }
      ],
      "stateMutability": "view",
      "type": "function"
    },
    {
      "inputs": [],
      "name": "_ashPrice",
      "outputs": [
        {
          "internalType": "uint256",
          "name": "",
          "type": "uint256"
        }
      ],
      "stateMutability": "view",
      "type": "function"
    },
    {
      "inputs": [],
      "name": "_mergeOpened",
      "outputs": [
        {
          "internalType": "bool",
          "name": "",
          "type": "bool"
        }
      ],
      "stateMutability": "view",
      "type": "function"
    },
    {
      "inputs": [],
      "name": "_mintOpened",
      "outputs": [
        {
          "internalType": "bool",
          "name": "",
          "type": "bool"
        }
      ],
      "stateMutability": "view",
      "type": "function"
    },
    {
      "inputs": [
        {
          "internalType": "address",
          "name": "",
          "type": "address"
        }
      ],
      "name": "_tokensClaimed",
      "outputs": [
        {
          "internalType": "uint256",
          "name": "",
          "type": "uint256"
        }
      ],
      "stateMutability": "view",
      "type": "function"
    },
    {
      "inputs": [
        {
          "internalType": "address",
          "name": "admin",
          "type": "address"
        }
      ],
      "name": "approveAdmin",
      "outputs": [],
      "stateMutability": "nonpayable",
      "type": "function"
    },
    {
      "inputs": [
        {
          "internalType": "address",
          "name": "account",
          "type": "address"
        },
        {
          "internalType": "uint256",
          "name": "id",
          "type": "uint256"
        }
      ],
      "name": "balanceOf",
      "outputs": [
        {
          "internalType": "uint256",
          "name": "",
          "type": "uint256"
        }
      ],
      "stateMutability": "view",
      "type": "function"
    },
    {
      "inputs": [
        {
          "internalType": "address[]",
          "name": "accounts",
          "type": "address[]"
        },
        {
          "internalType": "uint256[]",
          "name": "ids",
          "type": "uint256[]"
        }
      ],
      "name": "balanceOfBatch",
      "outputs": [
        {
          "internalType": "uint256[]",
          "name": "",
          "type": "uint256[]"
        }
      ],
      "stateMutability": "view",
      "type": "function"
    },
    {
      "inputs": [],
      "name": "getAdmins",
      "outputs": [
        {
          "internalType": "address[]",
          "name": "admins",
          "type": "address[]"
        }
      ],
      "stateMutability": "view",
      "type": "function"
    },
    {
      "inputs": [
        {
          "internalType": "address",
          "name": "admin",
          "type": "address"
        }
      ],
      "name": "isAdmin",
      "outputs": [
        {
          "internalType": "bool",
          "name": "",
          "type": "bool"
        }
      ],
      "stateMutability": "view",
      "type": "function"
    },
    {
      "inputs": [
        {
          "internalType": "address",
          "name": "account",
          "type": "address"
        },
        {
          "internalType": "address",
          "name": "operator",
          "type": "address"
        }
      ],
      "name": "isApprovedForAll",
      "outputs": [
        {
          "internalType": "bool",
          "name": "",
          "type": "bool"
        }
      ],
      "stateMutability": "view",
      "type": "function"
    },
    {
      "inputs": [],
      "name": "owner",
      "outputs": [
        {
          "internalType": "address",
          "name": "",
          "type": "address"
        }
      ],
      "stateMutability": "view",
      "type": "function"
    },
    {
      "inputs": [],
      "name": "renounceOwnership",
      "outputs": [],
      "stateMutability": "nonpayable",
      "type": "function"
    },
    {
      "inputs": [
        {
          "internalType": "address",
          "name": "admin",
          "type": "address"
        }
      ],
      "name": "revokeAdmin",
      "outputs": [],
      "stateMutability": "nonpayable",
      "type": "function"
    },
    {
      "inputs": [
        {
          "internalType": "address",
          "name": "from",
          "type": "address"
        },
        {
          "internalType": "address",
          "name": "to",
          "type": "address"
        },
        {
          "internalType": "uint256[]",
          "name": "ids",
          "type": "uint256[]"
        },
        {
          "internalType": "uint256[]",
          "name": "amounts",
          "type": "uint256[]"
        },
        {
          "internalType": "bytes",
          "name": "data",
          "type": "bytes"
        }
      ],
      "name": "safeBatchTransferFrom",
      "outputs": [],
      "stateMutability": "nonpayable",
      "type": "function"
    },
    {
      "inputs": [
        {
          "internalType": "address",
          "name": "from",
          "type": "address"
        },
        {
          "internalType": "address",
          "name": "to",
          "type": "address"
        },
        {
          "internalType": "uint256",
          "name": "id",
          "type": "uint256"
        },
        {
          "internalType": "uint256",
          "name": "amount",
          "type": "uint256"
        },
        {
          "internalType": "bytes",
          "name": "data",
          "type": "bytes"
        }
      ],
      "name": "safeTransferFrom",
      "outputs": [],
      "stateMutability": "nonpayable",
      "type": "function"
    },
    {
      "inputs": [
        {
          "internalType": "address",
          "name": "operator",
          "type": "address"
        },
        {
          "internalType": "bool",
          "name": "approved",
          "type": "bool"
        }
      ],
      "name": "setApprovalForAll",
      "outputs": [],
      "stateMutability": "nonpayable",
      "type": "function"
    },
    {
      "inputs": [
        {
          "internalType": "address",
          "name": "newOwner",
          "type": "address"
        }
      ],
      "name": "transferOwnership",
      "outputs": [],
      "stateMutability": "nonpayable",
      "type": "function"
    },
    {
      "inputs": [
        {
          "internalType": "bytes4",
          "name": "interfaceId",
          "type": "bytes4"
        }
      ],
      "name": "supportsInterface",
      "outputs": [
        {
          "internalType": "bool",
          "name": "",
          "type": "bool"
        }
      ],
      "stateMutability": "view",
      "type": "function"
    },
    {
      "inputs": [
        {
          "internalType": "address",
          "name": "signer",
          "type": "address"
        }
      ],
      "name": "setSigner",
      "outputs": [],
      "stateMutability": "nonpayable",
      "type": "function"
    },
    {
      "inputs": [
        {
          "internalType": "address",
          "name": "account",
          "type": "address"
        },
        {
          "internalType": "uint256[]",
          "name": "tokenIds",
          "type": "uint256[]"
        },
        {
          "internalType": "uint256[]",
          "name": "quantities",
          "type": "uint256[]"
        },
        {
          "internalType": "uint256",
          "name": "ALNumber",
          "type": "uint256"
        },
        {
          "internalType": "uint8",
          "name": "v",
          "type": "uint8"
        },
        {
          "internalType": "bytes32",
          "name": "r",
          "type": "bytes32"
        },
        {
          "internalType": "bytes32",
          "name": "s",
          "type": "bytes32"
        }
      ],
      "name": "publicMint",
      "outputs": [],
      "stateMutability": "nonpayable",
      "type": "function"
    },
    {
      "inputs": [
        {
          "internalType": "address",
          "name": "to",
          "type": "address"
        },
        {
          "internalType": "uint256[]",
          "name": "ids",
          "type": "uint256[]"
        },
        {
          "internalType": "uint256[]",
          "name": "amounts",
          "type": "uint256[]"
        }
      ],
      "name": "mintBatch",
      "outputs": [],
      "stateMutability": "nonpayable",
      "type": "function"
    },
    {
      "inputs": [],
      "name": "toggleMintState",
      "outputs": [],
      "stateMutability": "nonpayable",
      "type": "function"
    },
    {
      "inputs": [],
      "name": "toggleMergeState",
      "outputs": [],
      "stateMutability": "nonpayable",
      "type": "function"
    },
    {
      "inputs": [
        {
          "internalType": "string",
          "name": "updatedURI",
          "type": "string"
        }
      ],
      "name": "setURI",
      "outputs": [],
      "stateMutability": "nonpayable",
      "type": "function"
    },
    {
      "inputs": [
        {
          "internalType": "uint256",
          "name": "tokenId",
          "type": "uint256"
        }
      ],
      "name": "uri",
      "outputs": [
        {
          "internalType": "string",
          "name": "",
          "type": "string"
        }
      ],
      "stateMutability": "view",
      "type": "function"
    },
    {
      "inputs": [
        {
          "internalType": "address",
          "name": "account",
          "type": "address"
        },
        {
          "internalType": "uint256",
          "name": "token1",
          "type": "uint256"
        },
        {
          "internalType": "uint256",
          "name": "token2",
          "type": "uint256"
        }
      ],
      "name": "merge",
      "outputs": [],
      "stateMutability": "nonpayable",
      "type": "function"
    },
    {
      "inputs": [
        {
          "internalType": "uint256",
          "name": "tokenId",
          "type": "uint256"
        },
        {
          "internalType": "uint256",
          "name": "quantity",
          "type": "uint256"
        }
      ],
      "name": "burn",
      "outputs": [],
      "stateMutability": "nonpayable",
      "type": "function"
    },
    {
      "inputs": [
        {
          "internalType": "uint256[]",
          "name": "ids",
          "type": "uint256[]"
        },
        {
          "internalType": "uint256[]",
          "name": "amounts",
          "type": "uint256[]"
        }
      ],
      "name": "burnBatch",
      "outputs": [],
      "stateMutability": "nonpayable",
      "type": "function"
    },
    {
      "inputs": [
        {
          "internalType": "address payable",
          "name": "_recipient",
          "type": "address"
        },
        {
          "internalType": "uint256",
          "name": "_royaltyPerCent",
          "type": "uint256"
        }
      ],
      "name": "setRoyalties",
      "outputs": [],
      "stateMutability": "nonpayable",
      "type": "function"
    },
    {
      "inputs": [
        {
          "internalType": "uint256",
          "name": "salePrice",
          "type": "uint256"
        }
      ],
      "name": "royaltyInfo",
      "outputs": [
        {
          "internalType": "address",
          "name": "",
          "type": "address"
        },
        {
          "internalType": "uint256",
          "name": "",
          "type": "uint256"
        }
      ],
      "stateMutability": "view",
      "type": "function"
    },
    {
      "inputs": [
        {
          "internalType": "address",
          "name": "recipient",
          "type": "address"
        }
      ],
      "name": "withdraw",
      "outputs": [],
      "stateMutability": "nonpayable",
      "type": "function"
    }
  ],
  "bytecode": "0x60806040526040518060600160405280603f815260200162005fc7603f9139600790805190602001906200003592919062000254565b50678ac7230489e80000600855734392329a8565e81e3c041034feac84616fe9a722600a60006101000a81548173ffffffffffffffffffffffffffffffffffffffff021916908373ffffffffffffffffffffffffffffffffffffffff1602179055506000600c60146101000a81548160ff0219169083151502179055506000600c60156101000a81548160ff021916908315150217905550348015620000da57600080fd5b50604051806020016040528060008152506200010b620000ff6200016c60201b60201c565b6200017460201b60201c565b6200011c816200023860201b60201c565b5033600b60006101000a81548173ffffffffffffffffffffffffffffffffffffffff021916908373ffffffffffffffffffffffffffffffffffffffff160217905550600a60098190555062000369565b600033905090565b60008060009054906101000a900473ffffffffffffffffffffffffffffffffffffffff169050816000806101000a81548173ffffffffffffffffffffffffffffffffffffffff021916908373ffffffffffffffffffffffffffffffffffffffff1602179055508173ffffffffffffffffffffffffffffffffffffffff168173ffffffffffffffffffffffffffffffffffffffff167f8be0079c531659141344cd1fd0a4f28419497f9722a3daafe3b4186f6b6457e060405160405180910390a35050565b80600390805190602001906200025092919062000254565b5050565b828054620002629062000333565b90600052602060002090601f016020900481019282620002865760008555620002d2565b82601f10620002a157805160ff1916838001178555620002d2565b82800160010185558215620002d2579182015b82811115620002d1578251825591602001919060010190620002b4565b5b509050620002e19190620002e5565b5090565b5b8082111562000300576000816000905550600101620002e6565b5090565b7f4e487b7100000000000000000000000000000000000000000000000000000000600052602260045260246000fd5b600060028204905060018216806200034c57607f821691505b6020821081141562000363576200036262000304565b5b50919050565b615c4e80620003796000396000f3fe608060405234801561001057600080fd5b50600436106101ef5760003560e01c8063715018a61161010f578063c5750d53116100a2578063debfe14c11610071578063debfe14c14610565578063e985e9c514610583578063f242432a146105b3578063f2fde38b146105cf576101ef565b8063c5750d53146104f2578063cef6d3681461050e578063d81d0a151461053f578063d99327431461055b576101ef565b8063a22cb465116100de578063a22cb4651461046c578063a6bdec1614610488578063b390c0ab146104a6578063bc8485a5146104c2576101ef565b8063715018a61461040c57806383ca4b6f146104165780638c7ea24b146104325780638da5cb5b1461044e576101ef565b806331ae450b1161018757806351cff8d91161015657806351cff8d91461039a5780635c371672146103b65780636c19e783146103d45780636d73e669146103f0576101ef565b806331ae450b14610326578063463dcf0a146103445780634e1273f414610360578063510db75a14610390576101ef565b806319981dd1116101c357806319981dd1146102a057806324d7806c146102be5780632d345670146102ee5780632eb2c2d61461030a576101ef565b8062fdd58e146101f457806301ffc9a71461022457806302fe5305146102545780630e89341c14610270575b600080fd5b61020e60048036038101906102099190613936565b6105eb565b60405161021b9190613985565b60405180910390f35b61023e600480360381019061023991906139f8565b6106b5565b60405161024b9190613a40565b60405180910390f35b61026e60048036038101906102699190613ac0565b61074f565b005b61028a60048036038101906102859190613b0d565b6107f5565b6040516102979190613bd3565b60405180910390f35b6102a8610829565b6040516102b59190613a40565b60405180910390f35b6102d860048036038101906102d39190613bf5565b61083c565b6040516102e59190613a40565b60405180910390f35b61030860048036038101906103039190613bf5565b610896565b005b610324600480360381019061031f9190613e15565b61099e565b005b61032e610a3f565b60405161033b9190613fa2565b60405180910390f35b61035e60048036038101906103599190613fc4565b610b21565b005b61037a600480360381019061037591906140da565b610e0b565b6040516103879190614210565b60405180910390f35b610398610f24565b005b6103b460048036038101906103af9190613bf5565b610fe0565b005b6103be6110ba565b6040516103cb9190613985565b60405180910390f35b6103ee60048036038101906103e99190613bf5565b6110c0565b005b61040a60048036038101906104059190613bf5565b611194565b005b61041461129b565b005b610430600480360381019061042b9190614232565b611323565b005b61044c600480360381019061044791906142e8565b611332565b005b61045661140e565b6040516104639190614337565b60405180910390f35b6104866004803603810190610481919061437e565b611437565b005b61049061144d565b60405161049d9190613a40565b60405180910390f35b6104c060048036038101906104bb91906143be565b611460565b005b6104dc60048036038101906104d79190613bf5565b61146f565b6040516104e99190613985565b60405180910390f35b61050c600480360381019061050791906144c3565b611487565b005b61052860048036038101906105239190613b0d565b6117dd565b6040516105369291906145a5565b60405180910390f35b610559600480360381019061055491906145ce565b611889565b005b61056361195f565b005b61056d611a1b565b60405161057a9190614337565b60405180910390f35b61059d60048036038101906105989190614659565b611a41565b6040516105aa9190613a40565b60405180910390f35b6105cd60048036038101906105c89190614699565b611ad5565b005b6105e960048036038101906105e49190613bf5565b611b76565b005b60008073ffffffffffffffffffffffffffffffffffffffff168373ffffffffffffffffffffffffffffffffffffffff16141561065c576040517f08c379a0000000000000000000000000000000000000000000000000000000008152600401610653906147a2565b60405180910390fd5b6001600083815260200190815260200160002060008473ffffffffffffffffffffffffffffffffffffffff1673ffffffffffffffffffffffffffffffffffffffff16815260200190815260200160002054905092915050565b60006106c082611c6e565b806106d057506106cf82611ce8565b5b8061073857507f2a55205a000000000000000000000000000000000000000000000000000000007bffffffffffffffffffffffffffffffffffffffffffffffffffffffff1916827bffffffffffffffffffffffffffffffffffffffffffffffffffffffff1916145b80610748575061074782611c6e565b5b9050919050565b3373ffffffffffffffffffffffffffffffffffffffff1661076e61140e565b73ffffffffffffffffffffffffffffffffffffffff1614806107a0575061079f336004611dca90919063ffffffff16565b5b6107df576040517f08c379a00000000000000000000000000000000000000000000000000000000081526004016107d690614834565b60405180910390fd5b8181600791906107f09291906137eb565b505050565b6060600761080283611dfa565b6040516020016108139291906149d1565b6040516020818303038152906040529050919050565b600c60149054906101000a900460ff1681565b60008173ffffffffffffffffffffffffffffffffffffffff1661085d61140e565b73ffffffffffffffffffffffffffffffffffffffff16148061088f575061088e826004611dca90919063ffffffff16565b5b9050919050565b61089e611f5b565b73ffffffffffffffffffffffffffffffffffffffff166108bc61140e565b73ffffffffffffffffffffffffffffffffffffffff1614610912576040517f08c379a000000000000000000000000000000000000000000000000000000000815260040161090990614a4c565b60405180910390fd5b610926816004611dca90919063ffffffff16565b1561099b573373ffffffffffffffffffffffffffffffffffffffff168173ffffffffffffffffffffffffffffffffffffffff167f7c0c3c84c67c85fcac635147348bfe374c24a1a93d0366d1cfe9d8853cbf89d560405160405180910390a3610999816004611f6390919063ffffffff16565b505b50565b6109a6611f5b565b73ffffffffffffffffffffffffffffffffffffffff168573ffffffffffffffffffffffffffffffffffffffff1614806109ec57506109eb856109e6611f5b565b611a41565b5b610a2b576040517f08c379a0000000000000000000000000000000000000000000000000000000008152600401610a2290614ade565b60405180910390fd5b610a388585858585611f93565b5050505050565b6060610a4b60046122aa565b67ffffffffffffffff811115610a6457610a63613c22565b5b604051908082528060200260200182016040528015610a925781602001602082028036833780820191505090505b50905060005b610aa260046122aa565b811015610b1d57610abd8160046122bf90919063ffffffff16565b828281518110610ad057610acf614afe565b5b602002602001019073ffffffffffffffffffffffffffffffffffffffff16908173ffffffffffffffffffffffffffffffffffffffff16815250508080610b1590614b5c565b915050610a98565b5090565b610b2a3361083c565b80610b6057503373ffffffffffffffffffffffffffffffffffffffff168373ffffffffffffffffffffffffffffffffffffffff16145b610b9f576040517f08c379a0000000000000000000000000000000000000000000000000000000008152600401610b9690614c17565b60405180910390fd5b600c60159054906101000a900460ff16610bee576040517f08c379a0000000000000000000000000000000000000000000000000000000008152600401610be590614c83565b60405180910390fd5b6000610bfa84846105eb565b11610c3a576040517f08c379a0000000000000000000000000000000000000000000000000000000008152600401610c3190614cef565b60405180910390fd5b6000610c4684836105eb565b11610c86576040517f08c379a0000000000000000000000000000000000000000000000000000000008152600401610c7d90614cef565b60405180910390fd5b60008183610c949190614d0f565b90506001600282610ca59190614d94565b148015610cb3575060068311155b8015610cc0575060068211155b610cff576040517f08c379a0000000000000000000000000000000000000000000000000000000008152600401610cf690614e37565b60405180910390fd5b60006001841480610d105750600183145b15610d415760038214610d345760058214610d2c576009610d2f565b60085b610d37565b60075b60ff169050610daa565b6003841480610d505750600383145b15610d815760058214610d745760078214610d6c57600c610d6f565b600b5b610d77565b600a5b60ff169050610da9565b60078214610da05760098214610d9857600f610d9b565b600e5b610da3565b600d5b60ff1690505b5b610db6858560016122d9565b610dc2858460016122d9565b610e04858260016040518060400160405280600381526020017f30783000000000000000000000000000000000000000000000000000000000008152506124f8565b5050505050565b60608151835114610e51576040517f08c379a0000000000000000000000000000000000000000000000000000000008152600401610e4890614ec9565b60405180910390fd5b6000835167ffffffffffffffff811115610e6e57610e6d613c22565b5b604051908082528060200260200182016040528015610e9c5781602001602082028036833780820191505090505b50905060005b8451811015610f1957610ee9858281518110610ec157610ec0614afe565b5b6020026020010151858381518110610edc57610edb614afe565b5b60200260200101516105eb565b828281518110610efc57610efb614afe565b5b60200260200101818152505080610f1290614b5c565b9050610ea2565b508091505092915050565b3373ffffffffffffffffffffffffffffffffffffffff16610f4361140e565b73ffffffffffffffffffffffffffffffffffffffff161480610f755750610f74336004611dca90919063ffffffff16565b5b610fb4576040517f08c379a0000000000000000000000000000000000000000000000000000000008152600401610fab90614834565b60405180910390fd5b600c60149054906101000a900460ff1615600c60146101000a81548160ff021916908315150217905550565b3373ffffffffffffffffffffffffffffffffffffffff16610fff61140e565b73ffffffffffffffffffffffffffffffffffffffff1614806110315750611030336004611dca90919063ffffffff16565b5b611070576040517f08c379a000000000000000000000000000000000000000000000000000000000815260040161106790614834565b60405180910390fd5b8073ffffffffffffffffffffffffffffffffffffffff166108fc479081150290604051600060405180830381858888f193505050501580156110b6573d6000803e3d6000fd5b5050565b60085481565b3373ffffffffffffffffffffffffffffffffffffffff166110df61140e565b73ffffffffffffffffffffffffffffffffffffffff1614806111115750611110336004611dca90919063ffffffff16565b5b611150576040517f08c379a000000000000000000000000000000000000000000000000000000000815260040161114790614834565b60405180910390fd5b80600c60006101000a81548173ffffffffffffffffffffffffffffffffffffffff021916908373ffffffffffffffffffffffffffffffffffffffff16021790555050565b61119c611f5b565b73ffffffffffffffffffffffffffffffffffffffff166111ba61140e565b73ffffffffffffffffffffffffffffffffffffffff1614611210576040517f08c379a000000000000000000000000000000000000000000000000000000000815260040161120790614a4c565b60405180910390fd5b611224816004611dca90919063ffffffff16565b611298573373ffffffffffffffffffffffffffffffffffffffff168173ffffffffffffffffffffffffffffffffffffffff167f7e1a1a08d52e4ba0e21554733d66165fd5151f99460116223d9e3a608eec5cb160405160405180910390a361129681600461268f90919063ffffffff16565b505b50565b6112a3611f5b565b73ffffffffffffffffffffffffffffffffffffffff166112c161140e565b73ffffffffffffffffffffffffffffffffffffffff1614611317576040517f08c379a000000000000000000000000000000000000000000000000000000000815260040161130e90614a4c565b60405180910390fd5b61132160006126bf565b565b61132e338383612783565b5050565b3373ffffffffffffffffffffffffffffffffffffffff1661135161140e565b73ffffffffffffffffffffffffffffffffffffffff1614806113835750611382336004611dca90919063ffffffff16565b5b6113c2576040517f08c379a00000000000000000000000000000000000000000000000000000000081526004016113b990614834565b60405180910390fd5b81600b60006101000a81548173ffffffffffffffffffffffffffffffffffffffff021916908373ffffffffffffffffffffffffffffffffffffffff160217905550806009819055505050565b60008060009054906101000a900473ffffffffffffffffffffffffffffffffffffffff16905090565b611449611442611f5b565b8383612a36565b5050565b600c60159054906101000a900460ff1681565b61146b3383836122d9565b5050565b60066020528060005260406000206000915090505481565b600080600090505b878790508110156114d4578787828181106114ad576114ac614afe565b5b90506020020135826114bf9190614d0f565b915080806114cc90614b5c565b91505061148f565b506114e28186868686612ba3565b611521576040517f08c379a000000000000000000000000000000000000000000000000000000000815260040161151890614f35565b60405180910390fd5b8481600660008d73ffffffffffffffffffffffffffffffffffffffff1673ffffffffffffffffffffffffffffffffffffffff1681526020019081526020016000205461156d9190614d0f565b11156115ae576040517f08c379a00000000000000000000000000000000000000000000000000000000081526004016115a590614fc7565b60405180910390fd5b600a60009054906101000a900473ffffffffffffffffffffffffffffffffffffffff1673ffffffffffffffffffffffffffffffffffffffff166323b872dd33600b60009054906101000a900473ffffffffffffffffffffffffffffffffffffffff168460085461161e9190614fe7565b6040518463ffffffff1660e01b815260040161163c93929190615041565b6020604051808303816000875af115801561165b573d6000803e3d6000fd5b505050506040513d601f19601f8201168201806040525081019061167f919061508d565b506117438a8a8a80806020026020016040519081016040528093929190818152602001838360200280828437600081840152601f19601f82011690508083019250505050505050898980806020026020016040519081016040528093929190818152602001838360200280828437600081840152601f19601f820116905080830192505050505050506040518060400160405280600481526020017f3078303000000000000000000000000000000000000000000000000000000000815250612cb5565b80600660008c73ffffffffffffffffffffffffffffffffffffffff1673ffffffffffffffffffffffffffffffffffffffff1681526020019081526020016000205461178e9190614d0f565b600660008c73ffffffffffffffffffffffffffffffffffffffff1673ffffffffffffffffffffffffffffffffffffffff1681526020019081526020016000208190555050505050505050505050565b600080600073ffffffffffffffffffffffffffffffffffffffff16600b60009054906101000a900473ffffffffffffffffffffffffffffffffffffffff1673ffffffffffffffffffffffffffffffffffffffff161461187c57600b60009054906101000a900473ffffffffffffffffffffffffffffffffffffffff166064600954856118699190614fe7565b61187391906150ba565b91509150611884565b600080915091505b915091565b3373ffffffffffffffffffffffffffffffffffffffff166118a861140e565b73ffffffffffffffffffffffffffffffffffffffff1614806118da57506118d9336004611dca90919063ffffffff16565b5b611919576040517f08c379a000000000000000000000000000000000000000000000000000000000815260040161191090614834565b60405180910390fd5b61195a8383836040518060400160405280600381526020017f3078300000000000000000000000000000000000000000000000000000000000815250612cb5565b505050565b3373ffffffffffffffffffffffffffffffffffffffff1661197e61140e565b73ffffffffffffffffffffffffffffffffffffffff1614806119b057506119af336004611dca90919063ffffffff16565b5b6119ef576040517f08c379a00000000000000000000000000000000000000000000000000000000081526004016119e690614834565b60405180910390fd5b600c60159054906101000a900460ff1615600c60156101000a81548160ff021916908315150217905550565b600a60009054906101000a900473ffffffffffffffffffffffffffffffffffffffff1681565b6000600260008473ffffffffffffffffffffffffffffffffffffffff1673ffffffffffffffffffffffffffffffffffffffff16815260200190815260200160002060008373ffffffffffffffffffffffffffffffffffffffff1673ffffffffffffffffffffffffffffffffffffffff16815260200190815260200160002060009054906101000a900460ff16905092915050565b611add611f5b565b73ffffffffffffffffffffffffffffffffffffffff168573ffffffffffffffffffffffffffffffffffffffff161480611b235750611b2285611b1d611f5b565b611a41565b5b611b62576040517f08c379a0000000000000000000000000000000000000000000000000000000008152600401611b599061515d565b60405180910390fd5b611b6f8585858585612ed4565b5050505050565b611b7e611f5b565b73ffffffffffffffffffffffffffffffffffffffff16611b9c61140e565b73ffffffffffffffffffffffffffffffffffffffff1614611bf2576040517f08c379a0000000000000000000000000000000000000000000000000000000008152600401611be990614a4c565b60405180910390fd5b600073ffffffffffffffffffffffffffffffffffffffff168173ffffffffffffffffffffffffffffffffffffffff161415611c62576040517f08c379a0000000000000000000000000000000000000000000000000000000008152600401611c59906151ef565b60405180910390fd5b611c6b816126bf565b50565b60007f553e757e000000000000000000000000000000000000000000000000000000007bffffffffffffffffffffffffffffffffffffffffffffffffffffffff1916827bffffffffffffffffffffffffffffffffffffffffffffffffffffffff19161480611ce15750611ce082611ce8565b5b9050919050565b60007fd9b67a26000000000000000000000000000000000000000000000000000000007bffffffffffffffffffffffffffffffffffffffffffffffffffffffff1916827bffffffffffffffffffffffffffffffffffffffffffffffffffffffff19161480611db357507f0e89341c000000000000000000000000000000000000000000000000000000007bffffffffffffffffffffffffffffffffffffffffffffffffffffffff1916827bffffffffffffffffffffffffffffffffffffffffffffffffffffffff1916145b80611dc35750611dc282613159565b5b9050919050565b6000611df2836000018373ffffffffffffffffffffffffffffffffffffffff1660001b6131c3565b905092915050565b60606000821415611e42576040518060400160405280600181526020017f30000000000000000000000000000000000000000000000000000000000000008152509050611f56565b600082905060005b60008214611e74578080611e5d90614b5c565b915050600a82611e6d91906150ba565b9150611e4a565b60008167ffffffffffffffff811115611e9057611e8f613c22565b5b6040519080825280601f01601f191660200182016040528015611ec25781602001600182028036833780820191505090505b5090505b60008514611f4f57600182611edb919061520f565b9150600a85611eea9190614d94565b6030611ef69190614d0f565b60f81b818381518110611f0c57611f0b614afe565b5b60200101907effffffffffffffffffffffffffffffffffffffffffffffffffffffffffffff1916908160001a905350600a85611f4891906150ba565b9450611ec6565b8093505050505b919050565b600033905090565b6000611f8b836000018373ffffffffffffffffffffffffffffffffffffffff1660001b6131e6565b905092915050565b8151835114611fd7576040517f08c379a0000000000000000000000000000000000000000000000000000000008152600401611fce906152b5565b60405180910390fd5b600073ffffffffffffffffffffffffffffffffffffffff168473ffffffffffffffffffffffffffffffffffffffff161415612047576040517f08c379a000000000000000000000000000000000000000000000000000000000815260040161203e90615347565b60405180910390fd5b6000612051611f5b565b90506120618187878787876132fa565b60005b845181101561221557600085828151811061208257612081614afe565b5b6020026020010151905060008583815181106120a1576120a0614afe565b5b6020026020010151905060006001600084815260200190815260200160002060008b73ffffffffffffffffffffffffffffffffffffffff1673ffffffffffffffffffffffffffffffffffffffff16815260200190815260200160002054905081811015612143576040517f08c379a000000000000000000000000000000000000000000000000000000000815260040161213a906153d9565b60405180910390fd5b8181036001600085815260200190815260200160002060008c73ffffffffffffffffffffffffffffffffffffffff1673ffffffffffffffffffffffffffffffffffffffff16815260200190815260200160002081905550816001600085815260200190815260200160002060008b73ffffffffffffffffffffffffffffffffffffffff1673ffffffffffffffffffffffffffffffffffffffff16815260200190815260200160002060008282546121fa9190614d0f565b925050819055505050508061220e90614b5c565b9050612064565b508473ffffffffffffffffffffffffffffffffffffffff168673ffffffffffffffffffffffffffffffffffffffff168273ffffffffffffffffffffffffffffffffffffffff167f4a39dc06d4c0dbc64b70af90fd698a233a518aa5d07e595d983b8c0526c8f7fb878760405161228c9291906153f9565b60405180910390a46122a2818787878787613302565b505050505050565b60006122b8826000016134da565b9050919050565b60006122ce83600001836134eb565b60001c905092915050565b600073ffffffffffffffffffffffffffffffffffffffff168373ffffffffffffffffffffffffffffffffffffffff161415612349576040517f08c379a0000000000000000000000000000000000000000000000000000000008152600401612340906154a2565b60405180910390fd5b6000612353611f5b565b90506123838185600061236587613516565b61236e87613516565b604051806020016040528060008152506132fa565b60006001600085815260200190815260200160002060008673ffffffffffffffffffffffffffffffffffffffff1673ffffffffffffffffffffffffffffffffffffffff1681526020019081526020016000205490508281101561241b576040517f08c379a000000000000000000000000000000000000000000000000000000000815260040161241290615534565b60405180910390fd5b8281036001600086815260200190815260200160002060008773ffffffffffffffffffffffffffffffffffffffff1673ffffffffffffffffffffffffffffffffffffffff16815260200190815260200160002081905550600073ffffffffffffffffffffffffffffffffffffffff168573ffffffffffffffffffffffffffffffffffffffff168373ffffffffffffffffffffffffffffffffffffffff167fc3d58168c5ae7397731d063d5bbf3d657854427343f4c083240f7aacaa2d0f6287876040516124e9929190615554565b60405180910390a45050505050565b600073ffffffffffffffffffffffffffffffffffffffff168473ffffffffffffffffffffffffffffffffffffffff161415612568576040517f08c379a000000000000000000000000000000000000000000000000000000000815260040161255f906155ef565b60405180910390fd5b6000612572611f5b565b90506125938160008761258488613516565b61258d88613516565b876132fa565b826001600086815260200190815260200160002060008773ffffffffffffffffffffffffffffffffffffffff1673ffffffffffffffffffffffffffffffffffffffff16815260200190815260200160002060008282546125f39190614d0f565b925050819055508473ffffffffffffffffffffffffffffffffffffffff16600073ffffffffffffffffffffffffffffffffffffffff168273ffffffffffffffffffffffffffffffffffffffff167fc3d58168c5ae7397731d063d5bbf3d657854427343f4c083240f7aacaa2d0f628787604051612671929190615554565b60405180910390a461268881600087878787613590565b5050505050565b60006126b7836000018373ffffffffffffffffffffffffffffffffffffffff1660001b613768565b905092915050565b60008060009054906101000a900473ffffffffffffffffffffffffffffffffffffffff169050816000806101000a81548173ffffffffffffffffffffffffffffffffffffffff021916908373ffffffffffffffffffffffffffffffffffffffff1602179055508173ffffffffffffffffffffffffffffffffffffffff168173ffffffffffffffffffffffffffffffffffffffff167f8be0079c531659141344cd1fd0a4f28419497f9722a3daafe3b4186f6b6457e060405160405180910390a35050565b600073ffffffffffffffffffffffffffffffffffffffff168373ffffffffffffffffffffffffffffffffffffffff1614156127f3576040517f08c379a00000000000000000000000000000000000000000000000000000000081526004016127ea906154a2565b60405180910390fd5b8051825114612837576040517f08c379a000000000000000000000000000000000000000000000000000000000815260040161282e906152b5565b60405180910390fd5b6000612841611f5b565b9050612861818560008686604051806020016040528060008152506132fa565b60005b83518110156129b057600084828151811061288257612881614afe565b5b6020026020010151905060008483815181106128a1576128a0614afe565b5b6020026020010151905060006001600084815260200190815260200160002060008973ffffffffffffffffffffffffffffffffffffffff1673ffffffffffffffffffffffffffffffffffffffff16815260200190815260200160002054905081811015612943576040517f08c379a000000000000000000000000000000000000000000000000000000000815260040161293a90615534565b60405180910390fd5b8181036001600085815260200190815260200160002060008a73ffffffffffffffffffffffffffffffffffffffff1673ffffffffffffffffffffffffffffffffffffffff1681526020019081526020016000208190555050505080806129a890614b5c565b915050612864565b50600073ffffffffffffffffffffffffffffffffffffffff168473ffffffffffffffffffffffffffffffffffffffff168273ffffffffffffffffffffffffffffffffffffffff167f4a39dc06d4c0dbc64b70af90fd698a233a518aa5d07e595d983b8c0526c8f7fb8686604051612a289291906153f9565b60405180910390a450505050565b8173ffffffffffffffffffffffffffffffffffffffff168373ffffffffffffffffffffffffffffffffffffffff161415612aa5576040517f08c379a0000000000000000000000000000000000000000000000000000000008152600401612a9c90615681565b60405180910390fd5b80600260008573ffffffffffffffffffffffffffffffffffffffff1673ffffffffffffffffffffffffffffffffffffffff16815260200190815260200160002060008473ffffffffffffffffffffffffffffffffffffffff1673ffffffffffffffffffffffffffffffffffffffff16815260200190815260200160002060006101000a81548160ff0219169083151502179055508173ffffffffffffffffffffffffffffffffffffffff168373ffffffffffffffffffffffffffffffffffffffff167f17307eab39ab6107e8899845ad3d59bd9653f200f220920489ca2b5937696c3183604051612b969190613a40565b60405180910390a3505050565b600060013330600c60149054906101000a900460ff16888a111589604051602001612bd2959493929190615752565b60405160208183030381529060405280519060200120604051602001612bf8919061581e565b6040516020818303038152906040528051906020012085858560405160008152602001604052604051612c2e9493929190615862565b6020604051602081039080840390855afa158015612c50573d6000803e3d6000fd5b5050506020604051035173ffffffffffffffffffffffffffffffffffffffff16600c60009054906101000a900473ffffffffffffffffffffffffffffffffffffffff1673ffffffffffffffffffffffffffffffffffffffff1614905095945050505050565b600073ffffffffffffffffffffffffffffffffffffffff168473ffffffffffffffffffffffffffffffffffffffff161415612d25576040517f08c379a0000000000000000000000000000000000000000000000000000000008152600401612d1c906155ef565b60405180910390fd5b8151835114612d69576040517f08c379a0000000000000000000000000000000000000000000000000000000008152600401612d60906152b5565b60405180910390fd5b6000612d73611f5b565b9050612d84816000878787876132fa565b60005b8451811015612e3e57838181518110612da357612da2614afe565b5b602002602001015160016000878481518110612dc257612dc1614afe565b5b6020026020010151815260200190815260200160002060008873ffffffffffffffffffffffffffffffffffffffff1673ffffffffffffffffffffffffffffffffffffffff1681526020019081526020016000206000828254612e249190614d0f565b925050819055508080612e3690614b5c565b915050612d87565b508473ffffffffffffffffffffffffffffffffffffffff16600073ffffffffffffffffffffffffffffffffffffffff168273ffffffffffffffffffffffffffffffffffffffff167f4a39dc06d4c0dbc64b70af90fd698a233a518aa5d07e595d983b8c0526c8f7fb8787604051612eb69291906153f9565b60405180910390a4612ecd81600087878787613302565b5050505050565b600073ffffffffffffffffffffffffffffffffffffffff168473ffffffffffffffffffffffffffffffffffffffff161415612f44576040517f08c379a0000000000000000000000000000000000000000000000000000000008152600401612f3b90615347565b60405180910390fd5b6000612f4e611f5b565b9050612f6e818787612f5f88613516565b612f6888613516565b876132fa565b60006001600086815260200190815260200160002060008873ffffffffffffffffffffffffffffffffffffffff1673ffffffffffffffffffffffffffffffffffffffff16815260200190815260200160002054905083811015613006576040517f08c379a0000000000000000000000000000000000000000000000000000000008152600401612ffd906153d9565b60405180910390fd5b8381036001600087815260200190815260200160002060008973ffffffffffffffffffffffffffffffffffffffff1673ffffffffffffffffffffffffffffffffffffffff16815260200190815260200160002081905550836001600087815260200190815260200160002060008873ffffffffffffffffffffffffffffffffffffffff1673ffffffffffffffffffffffffffffffffffffffff16815260200190815260200160002060008282546130bd9190614d0f565b925050819055508573ffffffffffffffffffffffffffffffffffffffff168773ffffffffffffffffffffffffffffffffffffffff168373ffffffffffffffffffffffffffffffffffffffff167fc3d58168c5ae7397731d063d5bbf3d657854427343f4c083240f7aacaa2d0f62888860405161313a929190615554565b60405180910390a4613150828888888888613590565b50505050505050565b60007f01ffc9a7000000000000000000000000000000000000000000000000000000007bffffffffffffffffffffffffffffffffffffffffffffffffffffffff1916827bffffffffffffffffffffffffffffffffffffffffffffffffffffffff1916149050919050565b600080836001016000848152602001908152602001600020541415905092915050565b600080836001016000848152602001908152602001600020549050600081146132ee576000600182613218919061520f565b9050600060018660000180549050613230919061520f565b905081811461329f57600086600001828154811061325157613250614afe565b5b906000526020600020015490508087600001848154811061327557613274614afe565b5b90600052602060002001819055508387600101600083815260200190815260200160002081905550505b856000018054806132b3576132b26158a7565b5b6001900381819060005260206000200160009055905585600101600086815260200190815260200160002060009055600193505050506132f4565b60009150505b92915050565b505050505050565b6133218473ffffffffffffffffffffffffffffffffffffffff166137d8565b156134d2578373ffffffffffffffffffffffffffffffffffffffff1663bc197c8187878686866040518663ffffffff1660e01b815260040161336795949392919061592b565b6020604051808303816000875af19250505080156133a357506040513d601f19601f820116820180604052508101906133a091906159a8565b60015b613449576133af6159e2565b806308c379a0141561340c57506133c4615a04565b806133cf575061340e565b806040517f08c379a00000000000000000000000000000000000000000000000000000000081526004016134039190613bd3565b60405180910390fd5b505b6040517f08c379a000000000000000000000000000000000000000000000000000000000815260040161344090615b0c565b60405180910390fd5b63bc197c8160e01b7bffffffffffffffffffffffffffffffffffffffffffffffffffffffff1916817bffffffffffffffffffffffffffffffffffffffffffffffffffffffff1916146134d0576040517f08c379a00000000000000000000000000000000000000000000000000000000081526004016134c790615b9e565b60405180910390fd5b505b505050505050565b600081600001805490509050919050565b600082600001828154811061350357613502614afe565b5b9060005260206000200154905092915050565b60606000600167ffffffffffffffff81111561353557613534613c22565b5b6040519080825280602002602001820160405280156135635781602001602082028036833780820191505090505b509050828160008151811061357b5761357a614afe565b5b60200260200101818152505080915050919050565b6135af8473ffffffffffffffffffffffffffffffffffffffff166137d8565b15613760578373ffffffffffffffffffffffffffffffffffffffff1663f23a6e6187878686866040518663ffffffff1660e01b81526004016135f5959493929190615bbe565b6020604051808303816000875af192505050801561363157506040513d601f19601f8201168201806040525081019061362e91906159a8565b60015b6136d75761363d6159e2565b806308c379a0141561369a5750613652615a04565b8061365d575061369c565b806040517f08c379a00000000000000000000000000000000000000000000000000000000081526004016136919190613bd3565b60405180910390fd5b505b6040517f08c379a00000000000000000000000000000000000000000000000000000000081526004016136ce90615b0c565b60405180910390fd5b63f23a6e6160e01b7bffffffffffffffffffffffffffffffffffffffffffffffffffffffff1916817bffffffffffffffffffffffffffffffffffffffffffffffffffffffff19161461375e576040517f08c379a000000000000000000000000000000000000000000000000000000000815260040161375590615b9e565b60405180910390fd5b505b505050505050565b600061377483836131c3565b6137cd5782600001829080600181540180825580915050600190039060005260206000200160009091909190915055826000018054905083600101600084815260200190815260200160002081905550600190506137d2565b600090505b92915050565b600080823b905060008111915050919050565b8280546137f790614883565b90600052602060002090601f0160209004810192826138195760008555613860565b82601f1061383257803560ff1916838001178555613860565b82800160010185558215613860579182015b8281111561385f578235825591602001919060010190613844565b5b50905061386d9190613871565b5090565b5b8082111561388a576000816000905550600101613872565b5090565b6000604051905090565b600080fd5b600080fd5b600073ffffffffffffffffffffffffffffffffffffffff82169050919050565b60006138cd826138a2565b9050919050565b6138dd816138c2565b81146138e857600080fd5b50565b6000813590506138fa816138d4565b92915050565b6000819050919050565b61391381613900565b811461391e57600080fd5b50565b6000813590506139308161390a565b92915050565b6000806040838503121561394d5761394c613898565b5b600061395b858286016138eb565b925050602061396c85828601613921565b9150509250929050565b61397f81613900565b82525050565b600060208201905061399a6000830184613976565b92915050565b60007fffffffff0000000000000000000000000000000000000000000000000000000082169050919050565b6139d5816139a0565b81146139e057600080fd5b50565b6000813590506139f2816139cc565b92915050565b600060208284031215613a0e57613a0d613898565b5b6000613a1c848285016139e3565b91505092915050565b60008115159050919050565b613a3a81613a25565b82525050565b6000602082019050613a556000830184613a31565b92915050565b600080fd5b600080fd5b600080fd5b60008083601f840112613a8057613a7f613a5b565b5b8235905067ffffffffffffffff811115613a9d57613a9c613a60565b5b602083019150836001820283011115613ab957613ab8613a65565b5b9250929050565b60008060208385031215613ad757613ad6613898565b5b600083013567ffffffffffffffff811115613af557613af461389d565b5b613b0185828601613a6a565b92509250509250929050565b600060208284031215613b2357613b22613898565b5b6000613b3184828501613921565b91505092915050565b600081519050919050565b600082825260208201905092915050565b60005b83811015613b74578082015181840152602081019050613b59565b83811115613b83576000848401525b50505050565b6000601f19601f8301169050919050565b6000613ba582613b3a565b613baf8185613b45565b9350613bbf818560208601613b56565b613bc881613b89565b840191505092915050565b60006020820190508181036000830152613bed8184613b9a565b905092915050565b600060208284031215613c0b57613c0a613898565b5b6000613c19848285016138eb565b91505092915050565b7f4e487b7100000000000000000000000000000000000000000000000000000000600052604160045260246000fd5b613c5a82613b89565b810181811067ffffffffffffffff82111715613c7957613c78613c22565b5b80604052505050565b6000613c8c61388e565b9050613c988282613c51565b919050565b600067ffffffffffffffff821115613cb857613cb7613c22565b5b602082029050602081019050919050565b6000613cdc613cd784613c9d565b613c82565b90508083825260208201905060208402830185811115613cff57613cfe613a65565b5b835b81811015613d285780613d148882613921565b845260208401935050602081019050613d01565b5050509392505050565b600082601f830112613d4757613d46613a5b565b5b8135613d57848260208601613cc9565b91505092915050565b600080fd5b600067ffffffffffffffff821115613d8057613d7f613c22565b5b613d8982613b89565b9050602081019050919050565b82818337600083830152505050565b6000613db8613db384613d65565b613c82565b905082815260208101848484011115613dd457613dd3613d60565b5b613ddf848285613d96565b509392505050565b600082601f830112613dfc57613dfb613a5b565b5b8135613e0c848260208601613da5565b91505092915050565b600080600080600060a08688031215613e3157613e30613898565b5b6000613e3f888289016138eb565b9550506020613e50888289016138eb565b945050604086013567ffffffffffffffff811115613e7157613e7061389d565b5b613e7d88828901613d32565b935050606086013567ffffffffffffffff811115613e9e57613e9d61389d565b5b613eaa88828901613d32565b925050608086013567ffffffffffffffff811115613ecb57613eca61389d565b5b613ed788828901613de7565b9150509295509295909350565b600081519050919050565b600082825260208201905092915050565b6000819050602082019050919050565b613f19816138c2565b82525050565b6000613f2b8383613f10565b60208301905092915050565b6000602082019050919050565b6000613f4f82613ee4565b613f598185613eef565b9350613f6483613f00565b8060005b83811015613f95578151613f7c8882613f1f565b9750613f8783613f37565b925050600181019050613f68565b5085935050505092915050565b60006020820190508181036000830152613fbc8184613f44565b905092915050565b600080600060608486031215613fdd57613fdc613898565b5b6000613feb868287016138eb565b9350506020613ffc86828701613921565b925050604061400d86828701613921565b9150509250925092565b600067ffffffffffffffff82111561403257614031613c22565b5b602082029050602081019050919050565b600061405661405184614017565b613c82565b9050808382526020820190506020840283018581111561407957614078613a65565b5b835b818110156140a2578061408e88826138eb565b84526020840193505060208101905061407b565b5050509392505050565b600082601f8301126140c1576140c0613a5b565b5b81356140d1848260208601614043565b91505092915050565b600080604083850312156140f1576140f0613898565b5b600083013567ffffffffffffffff81111561410f5761410e61389d565b5b61411b858286016140ac565b925050602083013567ffffffffffffffff81111561413c5761413b61389d565b5b61414885828601613d32565b9150509250929050565b600081519050919050565b600082825260208201905092915050565b6000819050602082019050919050565b61418781613900565b82525050565b6000614199838361417e565b60208301905092915050565b6000602082019050919050565b60006141bd82614152565b6141c7818561415d565b93506141d28361416e565b8060005b838110156142035781516141ea888261418d565b97506141f5836141a5565b9250506001810190506141d6565b5085935050505092915050565b6000602082019050818103600083015261422a81846141b2565b905092915050565b6000806040838503121561424957614248613898565b5b600083013567ffffffffffffffff8111156142675761426661389d565b5b61427385828601613d32565b925050602083013567ffffffffffffffff8111156142945761429361389d565b5b6142a085828601613d32565b9150509250929050565b60006142b5826138a2565b9050919050565b6142c5816142aa565b81146142d057600080fd5b50565b6000813590506142e2816142bc565b92915050565b600080604083850312156142ff576142fe613898565b5b600061430d858286016142d3565b925050602061431e85828601613921565b9150509250929050565b614331816138c2565b82525050565b600060208201905061434c6000830184614328565b92915050565b61435b81613a25565b811461436657600080fd5b50565b60008135905061437881614352565b92915050565b6000806040838503121561439557614394613898565b5b60006143a3858286016138eb565b92505060206143b485828601614369565b9150509250929050565b600080604083850312156143d5576143d4613898565b5b60006143e385828601613921565b92505060206143f485828601613921565b9150509250929050565b60008083601f84011261441457614413613a5b565b5b8235905067ffffffffffffffff81111561443157614430613a60565b5b60208301915083602082028301111561444d5761444c613a65565b5b9250929050565b600060ff82169050919050565b61446a81614454565b811461447557600080fd5b50565b60008135905061448781614461565b92915050565b6000819050919050565b6144a08161448d565b81146144ab57600080fd5b50565b6000813590506144bd81614497565b92915050565b600080600080600080600080600060e08a8c0312156144e5576144e4613898565b5b60006144f38c828d016138eb565b99505060208a013567ffffffffffffffff8111156145145761451361389d565b5b6145208c828d016143fe565b985098505060408a013567ffffffffffffffff8111156145435761454261389d565b5b61454f8c828d016143fe565b965096505060606145628c828d01613921565b94505060806145738c828d01614478565b93505060a06145848c828d016144ae565b92505060c06145958c828d016144ae565b9150509295985092959850929598565b60006040820190506145ba6000830185614328565b6145c76020830184613976565b9392505050565b6000806000606084860312156145e7576145e6613898565b5b60006145f5868287016138eb565b935050602084013567ffffffffffffffff8111156146165761461561389d565b5b61462286828701613d32565b925050604084013567ffffffffffffffff8111156146435761464261389d565b5b61464f86828701613d32565b9150509250925092565b600080604083850312156146705761466f613898565b5b600061467e858286016138eb565b925050602061468f858286016138eb565b9150509250929050565b600080600080600060a086880312156146b5576146b4613898565b5b60006146c3888289016138eb565b95505060206146d4888289016138eb565b94505060406146e588828901613921565b93505060606146f688828901613921565b925050608086013567ffffffffffffffff8111156147175761471661389d565b5b61472388828901613de7565b9150509295509295909350565b7f455243313135353a2062616c616e636520717565727920666f7220746865207a60008201527f65726f2061646472657373000000000000000000000000000000000000000000602082015250565b600061478c602b83613b45565b915061479782614730565b604082019050919050565b600060208201905081810360008301526147bb8161477f565b9050919050565b7f41646d696e436f6e74726f6c3a204d757374206265206f776e6572206f72206160008201527f646d696e00000000000000000000000000000000000000000000000000000000602082015250565b600061481e602483613b45565b9150614829826147c2565b604082019050919050565b6000602082019050818103600083015261484d81614811565b9050919050565b7f4e487b7100000000000000000000000000000000000000000000000000000000600052602260045260246000fd5b6000600282049050600182168061489b57607f821691505b602082108114156148af576148ae614854565b5b50919050565b600081905092915050565b60008190508160005260206000209050919050565b600081546148e281614883565b6148ec81866148b5565b9450600182166000811461490757600181146149185761494b565b60ff1983168652818601935061494b565b614921856148c0565b60005b8381101561494357815481890152600182019150602081019050614924565b838801955050505b50505092915050565b600061495f82613b3a565b61496981856148b5565b9350614979818560208601613b56565b80840191505092915050565b7f2e6a736f6e000000000000000000000000000000000000000000000000000000600082015250565b60006149bb6005836148b5565b91506149c682614985565b600582019050919050565b60006149dd82856148d5565b91506149e98284614954565b91506149f4826149ae565b91508190509392505050565b7f4f776e61626c653a2063616c6c6572206973206e6f7420746865206f776e6572600082015250565b6000614a36602083613b45565b9150614a4182614a00565b602082019050919050565b60006020820190508181036000830152614a6581614a29565b9050919050565b7f455243313135353a207472616e736665722063616c6c6572206973206e6f742060008201527f6f776e6572206e6f7220617070726f7665640000000000000000000000000000602082015250565b6000614ac8603283613b45565b9150614ad382614a6c565b604082019050919050565b60006020820190508181036000830152614af781614abb565b9050919050565b7f4e487b7100000000000000000000000000000000000000000000000000000000600052603260045260246000fd5b7f4e487b7100000000000000000000000000000000000000000000000000000000600052601160045260246000fd5b6000614b6782613900565b91507fffffffffffffffffffffffffffffffffffffffffffffffffffffffffffffffff821415614b9a57614b99614b2d565b5b600182019050919050565b7f43616e6e6f74206d6572676520616e6f7468657220706572736f6e277320746f60008201527f6b656e0000000000000000000000000000000000000000000000000000000000602082015250565b6000614c01602383613b45565b9150614c0c82614ba5565b604082019050919050565b60006020820190508181036000830152614c3081614bf4565b9050919050565b7f4d65726765207068617365206e6f742061637469766174656400000000000000600082015250565b6000614c6d601983613b45565b9150614c7882614c37565b602082019050919050565b60006020820190508181036000830152614c9c81614c60565b9050919050565b7f4e6f7420656e6f75676820746f6b656e20746f206d6572676500000000000000600082015250565b6000614cd9601983613b45565b9150614ce482614ca3565b602082019050919050565b60006020820190508181036000830152614d0881614ccc565b9050919050565b6000614d1a82613900565b9150614d2583613900565b9250827fffffffffffffffffffffffffffffffffffffffffffffffffffffffffffffffff03821115614d5a57614d59614b2d565b5b828201905092915050565b7f4e487b7100000000000000000000000000000000000000000000000000000000600052601260045260246000fd5b6000614d9f82613900565b9150614daa83613900565b925082614dba57614db9614d65565b5b828206905092915050565b7f546f6b656e20636f6d62696e6174696f6e20696e76616c696420666f72206d6560008201527f7267650000000000000000000000000000000000000000000000000000000000602082015250565b6000614e21602383613b45565b9150614e2c82614dc5565b604082019050919050565b60006020820190508181036000830152614e5081614e14565b9050919050565b7f455243313135353a206163636f756e747320616e6420696473206c656e67746860008201527f206d69736d617463680000000000000000000000000000000000000000000000602082015250565b6000614eb3602983613b45565b9150614ebe82614e57565b604082019050919050565b60006020820190508181036000830152614ee281614ea6565b9050919050565b7f4d696e74206e6f7420616c6c6f77656400000000000000000000000000000000600082015250565b6000614f1f601083613b45565b9150614f2a82614ee9565b602082019050919050565b60006020820190508181036000830152614f4e81614f12565b9050919050565b7f43616e6e6f74206d696e74206d6f7265207468616e20616c6c6f776564206e7560008201527f6d626572206f6620746f6b656e73000000000000000000000000000000000000602082015250565b6000614fb1602e83613b45565b9150614fbc82614f55565b604082019050919050565b60006020820190508181036000830152614fe081614fa4565b9050919050565b6000614ff282613900565b9150614ffd83613900565b9250817fffffffffffffffffffffffffffffffffffffffffffffffffffffffffffffffff048311821515161561503657615035614b2d565b5b828202905092915050565b60006060820190506150566000830186614328565b6150636020830185614328565b6150706040830184613976565b949350505050565b60008151905061508781614352565b92915050565b6000602082840312156150a3576150a2613898565b5b60006150b184828501615078565b91505092915050565b60006150c582613900565b91506150d083613900565b9250826150e0576150df614d65565b5b828204905092915050565b7f455243313135353a2063616c6c6572206973206e6f74206f776e6572206e6f7260008201527f20617070726f7665640000000000000000000000000000000000000000000000602082015250565b6000615147602983613b45565b9150615152826150eb565b604082019050919050565b600060208201905081810360008301526151768161513a565b9050919050565b7f4f776e61626c653a206e6577206f776e657220697320746865207a65726f206160008201527f6464726573730000000000000000000000000000000000000000000000000000602082015250565b60006151d9602683613b45565b91506151e48261517d565b604082019050919050565b60006020820190508181036000830152615208816151cc565b9050919050565b600061521a82613900565b915061522583613900565b92508282101561523857615237614b2d565b5b828203905092915050565b7f455243313135353a2069647320616e6420616d6f756e7473206c656e6774682060008201527f6d69736d61746368000000000000000000000000000000000000000000000000602082015250565b600061529f602883613b45565b91506152aa82615243565b604082019050919050565b600060208201905081810360008301526152ce81615292565b9050919050565b7f455243313135353a207472616e7366657220746f20746865207a65726f20616460008201527f6472657373000000000000000000000000000000000000000000000000000000602082015250565b6000615331602583613b45565b915061533c826152d5565b604082019050919050565b6000602082019050818103600083015261536081615324565b9050919050565b7f455243313135353a20696e73756666696369656e742062616c616e636520666f60008201527f72207472616e7366657200000000000000000000000000000000000000000000602082015250565b60006153c3602a83613b45565b91506153ce82615367565b604082019050919050565b600060208201905081810360008301526153f2816153b6565b9050919050565b6000604082019050818103600083015261541381856141b2565b9050818103602083015261542781846141b2565b90509392505050565b7f455243313135353a206275726e2066726f6d20746865207a65726f206164647260008201527f6573730000000000000000000000000000000000000000000000000000000000602082015250565b600061548c602383613b45565b915061549782615430565b604082019050919050565b600060208201905081810360008301526154bb8161547f565b9050919050565b7f455243313135353a206275726e20616d6f756e7420657863656564732062616c60008201527f616e636500000000000000000000000000000000000000000000000000000000602082015250565b600061551e602483613b45565b9150615529826154c2565b604082019050919050565b6000602082019050818103600083015261554d81615511565b9050919050565b60006040820190506155696000830185613976565b6155766020830184613976565b9392505050565b7f455243313135353a206d696e7420746f20746865207a65726f2061646472657360008201527f7300000000000000000000000000000000000000000000000000000000000000602082015250565b60006155d9602183613b45565b91506155e48261557d565b604082019050919050565b60006020820190508181036000830152615608816155cc565b9050919050565b7f455243313135353a2073657474696e6720617070726f76616c2073746174757360008201527f20666f722073656c660000000000000000000000000000000000000000000000602082015250565b600061566b602983613b45565b91506156768261560f565b604082019050919050565b6000602082019050818103600083015261569a8161565e565b9050919050565b60008160601b9050919050565b60006156b9826156a1565b9050919050565b60006156cb826156ae565b9050919050565b6156e36156de826138c2565b6156c0565b82525050565b60008160f81b9050919050565b6000615701826156e9565b9050919050565b6000615713826156f6565b9050919050565b61572b61572682613a25565b615708565b82525050565b6000819050919050565b61574c61574782613900565b615731565b82525050565b600061575e82886156d2565b60148201915061576e82876156d2565b60148201915061577e828661571a565b60018201915061578e828561571a565b60018201915061579e828461573b565b6020820191508190509695505050505050565b7f19457468657265756d205369676e6564204d6573736167653a0a333200000000600082015250565b60006157e7601c836148b5565b91506157f2826157b1565b601c82019050919050565b6000819050919050565b6158186158138261448d565b6157fd565b82525050565b6000615829826157da565b91506158358284615807565b60208201915081905092915050565b61584d8161448d565b82525050565b61585c81614454565b82525050565b60006080820190506158776000830187615844565b6158846020830186615853565b6158916040830185615844565b61589e6060830184615844565b95945050505050565b7f4e487b7100000000000000000000000000000000000000000000000000000000600052603160045260246000fd5b600081519050919050565b600082825260208201905092915050565b60006158fd826158d6565b61590781856158e1565b9350615917818560208601613b56565b61592081613b89565b840191505092915050565b600060a0820190506159406000830188614328565b61594d6020830187614328565b818103604083015261595f81866141b2565b9050818103606083015261597381856141b2565b9050818103608083015261598781846158f2565b90509695505050505050565b6000815190506159a2816139cc565b92915050565b6000602082840312156159be576159bd613898565b5b60006159cc84828501615993565b91505092915050565b60008160e01c9050919050565b600060033d1115615a015760046000803e6159fe6000516159d5565b90505b90565b600060443d1015615a1457615a97565b615a1c61388e565b60043d036004823e80513d602482011167ffffffffffffffff82111715615a44575050615a97565b808201805167ffffffffffffffff811115615a625750505050615a97565b80602083010160043d038501811115615a7f575050505050615a97565b615a8e82602001850186613c51565b82955050505050505b90565b7f455243313135353a207472616e7366657220746f206e6f6e204552433131353560008201527f526563656976657220696d706c656d656e746572000000000000000000000000602082015250565b6000615af6603483613b45565b9150615b0182615a9a565b604082019050919050565b60006020820190508181036000830152615b2581615ae9565b9050919050565b7f455243313135353a204552433131353552656365697665722072656a6563746560008201527f6420746f6b656e73000000000000000000000000000000000000000000000000602082015250565b6000615b88602883613b45565b9150615b9382615b2c565b604082019050919050565b60006020820190508181036000830152615bb781615b7b565b9050919050565b600060a082019050615bd36000830188614328565b615be06020830187614328565b615bed6040830186613976565b615bfa6060830185613976565b8181036080830152615c0c81846158f2565b9050969550505050505056fea264697066735822122056fa632de33d57270b3d00db348987013b18a5a02f2425adab09bad54624bbcf64736f6c634300080c003368747470733a2f2f617277656176652e6e65742f7447585432396a314f41495048774a486f785a5941377539434b5065335a485366425764475a704778346f",
  "immutableReferences": {},
  "source": "// SPDX-License-Identifier: MIT\n\npragma solidity >= 0.8.12;\n\nimport \"@openzeppelin/contracts/token/ERC1155/ERC1155.sol\";\nimport \"@openzeppelin/contracts/token//ERC20/IERC20.sol\";\nimport \"@manifoldxyz/royalty-registry-solidity/contracts/specs/IEIP2981.sol\";\nimport \"@manifoldxyz/libraries-solidity/contracts/access/AdminControl.sol\";\nimport \"@openzeppelin/contracts/utils/Strings.sol\";\n\n\n\n\ncontract Duality is ERC1155, AdminControl {\n    \n    mapping(address => uint256) public _tokensClaimed;\n\n    string private _uri = \"https://arweave.net/tGXT29j1OAIPHwJHoxZYA7u9CKPe3ZHSfBWdGZpGx4o\";\n\n    uint256 public _ashPrice = 10*10**18; //10 ASH\n    uint256 private _royaltyAmount; //in % \n\n    // address _ashContract;\n    address public _ashContract = 0x4392329a8565E81E3C041034feAC84616fe9A722;\n    // address public _ashContract = 0x64D91f12Ece7362F91A6f8E7940Cd55F05060b92;\n    address private _royalties_recipient;\n    address private _signer;\n\n    bool public _mintOpened = false;\n    bool public _mergeOpened = false;\n\n// 1\tZero Video\n// 2\tZero Audio\n// 3\tOne Video\n// 4\tOne Audio\n// 5\t Video\n// 6\t Audio\n// 7\tZero Video, Zero Audio\n// 8\tZero Video, One Audio\n// 9\tZero Video,  Audio\n// 10\tOne Video, Zero Audio\n// 11\tOne Video, One Audio\n// 12\tOne Video,  Audio\n// 13\t Video, Zero Audio\n// 14\t Video, One Audio\n// 15\t Video,  Audio\n// 16   No Video, No Audio\n\n    \n    constructor () ERC1155(\"\") {\n        _royalties_recipient = payable(msg.sender);\n        _royaltyAmount = 10;\n    } \n\n    //////////  TO BE DELETED //////////\n    // function setAshContractAddress(address ashContractAddress) external adminRequired{\n    //     _ashContract = ashContractAddress;\n    // }\n    ////////////////////////////////////\n\n    function supportsInterface(bytes4 interfaceId)\n        public\n        view\n        virtual\n        override(ERC1155, AdminControl)\n        returns (bool)\n    {\n        return\n        AdminControl.supportsInterface(interfaceId) ||\n        ERC1155.supportsInterface(interfaceId) ||\n        interfaceId == type(IEIP2981).interfaceId ||\n        super.supportsInterface(interfaceId);\n    }\n\n    function mintAllowed(uint256 quantity, uint256 ALNumber, uint8 v, bytes32 r, bytes32 s)internal view returns(bool){\n        return(\n            _signer ==\n                ecrecover(\n                    keccak256(\n                        abi.encodePacked(\n                            \"\\x19Ethereum Signed Message:\\n32\",\n                            keccak256(\n                                abi.encodePacked(\n                                    msg.sender,\n                                    address(this),\n                                    _mintOpened,\n                                    quantity <= ALNumber,\n                                    ALNumber\n                                )\n                            )\n                        )\n                    )\n                , v, r, s)\n        );\n    }\n\n    function setSigner (address signer) external adminRequired{\n        _signer = signer;\n    }\n\n    function publicMint(\n        address account,\n        uint256[] calldata  tokenIds,\n        uint256[] calldata quantities,\n        uint256 ALNumber,\n        uint8 v,\n        bytes32 r, \n        bytes32 s\n    ) external {\n        uint256 quantity; \n        for(uint256 i = 0 ; i<quantities.length; i++){\n            quantity += quantities[i];\n        }\n        require(mintAllowed(quantity, ALNumber, v, r, s), \"Mint not allowed\");\n        require(_tokensClaimed[account] + quantity <= ALNumber, \"Cannot mint more than allowed number of tokens\");\n        IERC20(_ashContract).transferFrom(msg.sender, _royalties_recipient, _ashPrice * quantity);\n        _mintBatch(account ,tokenIds ,quantities ,\"0x00\");\n        _tokensClaimed[account] = _tokensClaimed[account] + quantity;\n    }\n\n    function mintBatch(\n        address to,\n        uint256[] memory ids,\n        uint256[] memory amounts\n    )external adminRequired{\n        _mintBatch(to, ids, amounts, \"0x0\");\n    }\n\n    function toggleMintState()external adminRequired{\n        _mintOpened = !_mintOpened;\n    }\n\n    function toggleMergeState()external adminRequired{\n        _mergeOpened = !_mergeOpened;\n    }\n\n    function setURI(\n        string calldata updatedURI\n    ) external adminRequired{\n        _uri = updatedURI;\n    }\n\n    function uri(uint256 tokenId) public view virtual override returns (string memory) {\n        return string(abi.encodePacked(_uri, Strings.toString(tokenId), \".json\"));\n    }\n\n    function merge(address account, uint256 token1, uint256 token2)external{\n        require(isAdmin(msg.sender) || account == msg.sender,\"Cannot merge another person's token\");\n        require(_mergeOpened, \"Merge phase not activated\");\n        require(balanceOf(account, token1)>0, \"Not enough token to merge\");\n        require(balanceOf(account, token2)>0, \"Not enough token to merge\");\n        uint256 sum = token1 + token2;\n        require(sum % 2 == 1 && token1 <= 6 && token2 <= 6, \"Token combination invalid for merge\");\n        uint256 mergedToken;\n        if(token1 == 1 || token2 ==1){\n            mergedToken = sum == 3 ? 7 : sum == 5 ? 8 : 9; \n        }else if(token1 == 3 || token2 == 3){\n            mergedToken = sum == 5 ? 10 : sum == 7 ? 11 : 12;\n        }else{\n            mergedToken = sum == 7 ? 13 : sum == 9 ? 14 : 15;\n        }\n        _burn(account, token1, 1);\n        _burn(account, token2, 1);\n        _mint(account, mergedToken, 1, \"0x0\");\n    }\n\n    function burn(uint256 tokenId, uint256 quantity) public {\n        _burn(msg.sender, tokenId, quantity);\n    }\n\n    function burnBatch(\n        uint256[] memory ids,\n        uint256[] memory amounts\n    )external{\n        _burnBatch(msg.sender, ids, amounts);\n    }\n\n    function setRoyalties(address payable _recipient, uint256 _royaltyPerCent) external adminRequired {\n        _royalties_recipient = _recipient;\n        _royaltyAmount = _royaltyPerCent;\n    }\n\n    function royaltyInfo(uint256 salePrice) external view returns (address, uint256) {\n        if(_royalties_recipient != address(0)){\n            return (_royalties_recipient, (salePrice * _royaltyAmount) / 100 );\n        }\n        return (address(0), 0);\n    }\n\n    function withdraw(address recipient) external adminRequired {\n        payable(recipient).transfer(address(this).balance);\n    }\n\n}",
  "sourcePath": "/Users/bct/Documents/Dev/NFT_dev/Duality/contracts/Duality.sol",
  "compiler": {
    "name": "solc",
    "version": "0.8.12+commit.f00d7308.Emscripten.clang"
  },
  "schemaVersion": "3.4.4",
  "updatedAt": "2022-05-18T21:32:24.264Z",
  "devdoc": {
    "kind": "dev",
    "methods": {
      "approveAdmin(address)": {
        "details": "See {IAdminControl-approveAdmin}."
      },
      "balanceOf(address,uint256)": {
        "details": "See {IERC1155-balanceOf}. Requirements: - `account` cannot be the zero address."
      },
      "balanceOfBatch(address[],uint256[])": {
        "details": "See {IERC1155-balanceOfBatch}. Requirements: - `accounts` and `ids` must have the same length."
      },
      "getAdmins()": {
        "details": "See {IAdminControl-getAdmins}."
      },
      "isAdmin(address)": {
        "details": "See {IAdminControl-isAdmin}."
      },
      "isApprovedForAll(address,address)": {
        "details": "See {IERC1155-isApprovedForAll}."
      },
      "owner()": {
        "details": "Returns the address of the current owner."
      },
      "renounceOwnership()": {
        "details": "Leaves the contract without owner. It will not be possible to call `onlyOwner` functions anymore. Can only be called by the current owner. NOTE: Renouncing ownership will leave the contract without an owner, thereby removing any functionality that is only available to the owner."
      },
      "revokeAdmin(address)": {
        "details": "See {IAdminControl-revokeAdmin}."
      },
      "safeBatchTransferFrom(address,address,uint256[],uint256[],bytes)": {
        "details": "See {IERC1155-safeBatchTransferFrom}."
      },
      "safeTransferFrom(address,address,uint256,uint256,bytes)": {
        "details": "See {IERC1155-safeTransferFrom}."
      },
      "setApprovalForAll(address,bool)": {
        "details": "See {IERC1155-setApprovalForAll}."
      },
      "transferOwnership(address)": {
        "details": "Transfers ownership of the contract to a new account (`newOwner`). Can only be called by the current owner."
      }
    },
    "version": 1
  },
  "userdoc": {
    "kind": "user",
    "methods": {},
    "version": 1
  }
}