{
  "contractName": "GRAVITY",
  "abi": [
    {
      "inputs": [],
      "stateMutability": "nonpayable",
      "type": "constructor"
    },
    {
      "anonymous": false,
      "inputs": [
        {
          "indexed": true,
          "internalType": "address",
          "name": "account",
          "type": "address"
        },
        {
          "indexed": true,
          "internalType": "address",
          "name": "sender",
          "type": "address"
        }
      ],
      "name": "AdminApproved",
      "type": "event"
    },
    {
      "anonymous": false,
      "inputs": [
        {
          "indexed": true,
          "internalType": "address",
          "name": "account",
          "type": "address"
        },
        {
          "indexed": true,
          "internalType": "address",
          "name": "sender",
          "type": "address"
        }
      ],
      "name": "AdminRevoked",
      "type": "event"
    },
    {
      "anonymous": false,
      "inputs": [
        {
          "indexed": true,
          "internalType": "address",
          "name": "account",
          "type": "address"
        },
        {
          "indexed": true,
          "internalType": "address",
          "name": "operator",
          "type": "address"
        },
        {
          "indexed": false,
          "internalType": "bool",
          "name": "approved",
          "type": "bool"
        }
      ],
      "name": "ApprovalForAll",
      "type": "event"
    },
    {
      "anonymous": false,
      "inputs": [
        {
          "indexed": true,
          "internalType": "address",
          "name": "previousOwner",
          "type": "address"
        },
        {
          "indexed": true,
          "internalType": "address",
          "name": "newOwner",
          "type": "address"
        }
      ],
      "name": "OwnershipTransferred",
      "type": "event"
    },
    {
      "anonymous": false,
      "inputs": [
        {
          "indexed": true,
          "internalType": "address",
          "name": "operator",
          "type": "address"
        },
        {
          "indexed": true,
          "internalType": "address",
          "name": "from",
          "type": "address"
        },
        {
          "indexed": true,
          "internalType": "address",
          "name": "to",
          "type": "address"
        },
        {
          "indexed": false,
          "internalType": "uint256[]",
          "name": "ids",
          "type": "uint256[]"
        },
        {
          "indexed": false,
          "internalType": "uint256[]",
          "name": "values",
          "type": "uint256[]"
        }
      ],
      "name": "TransferBatch",
      "type": "event"
    },
    {
      "anonymous": false,
      "inputs": [
        {
          "indexed": true,
          "internalType": "address",
          "name": "operator",
          "type": "address"
        },
        {
          "indexed": true,
          "internalType": "address",
          "name": "from",
          "type": "address"
        },
        {
          "indexed": true,
          "internalType": "address",
          "name": "to",
          "type": "address"
        },
        {
          "indexed": false,
          "internalType": "uint256",
          "name": "id",
          "type": "uint256"
        },
        {
          "indexed": false,
          "internalType": "uint256",
          "name": "value",
          "type": "uint256"
        }
      ],
      "name": "TransferSingle",
      "type": "event"
    },
    {
      "anonymous": false,
      "inputs": [
        {
          "indexed": false,
          "internalType": "string",
          "name": "value",
          "type": "string"
        },
        {
          "indexed": true,
          "internalType": "uint256",
          "name": "id",
          "type": "uint256"
        }
      ],
      "name": "URI",
      "type": "event"
    },
    {
      "inputs": [],
      "name": "_ALMintOpened",
      "outputs": [
        {
          "internalType": "bool",
          "name": "",
          "type": "bool"
        }
      ],
      "stateMutability": "view",
      "type": "function"
    },
    {
      "inputs": [],
      "name": "_activeToken",
      "outputs": [
        {
          "internalType": "uint256",
          "name": "",
          "type": "uint256"
        }
      ],
      "stateMutability": "view",
      "type": "function"
    },
    {
      "inputs": [],
      "name": "_ashContract",
      "outputs": [
        {
          "internalType": "address",
          "name": "",
          "type": "address"
        }
      ],
      "stateMutability": "view",
      "type": "function"
    },
    {
      "inputs": [],
      "name": "_ashPrice",
      "outputs": [
        {
          "internalType": "uint256",
          "name": "",
          "type": "uint256"
        }
      ],
      "stateMutability": "view",
      "type": "function"
    },
    {
      "inputs": [],
      "name": "_maxSupply",
      "outputs": [
        {
          "internalType": "uint256",
          "name": "",
          "type": "uint256"
        }
      ],
      "stateMutability": "view",
      "type": "function"
    },
    {
      "inputs": [],
      "name": "_publicMintOpened",
      "outputs": [
        {
          "internalType": "bool",
          "name": "",
          "type": "bool"
        }
      ],
      "stateMutability": "view",
      "type": "function"
    },
    {
      "inputs": [],
      "name": "_supply",
      "outputs": [
        {
          "internalType": "uint256",
          "name": "",
          "type": "uint256"
        }
      ],
      "stateMutability": "view",
      "type": "function"
    },
    {
      "inputs": [
        {
          "internalType": "uint256",
          "name": "",
          "type": "uint256"
        },
        {
          "internalType": "address",
          "name": "",
          "type": "address"
        }
      ],
      "name": "_tokenClaimed",
      "outputs": [
        {
          "internalType": "bool",
          "name": "",
          "type": "bool"
        }
      ],
      "stateMutability": "view",
      "type": "function"
    },
    {
      "inputs": [
        {
          "internalType": "address",
          "name": "admin",
          "type": "address"
        }
      ],
      "name": "approveAdmin",
      "outputs": [],
      "stateMutability": "nonpayable",
      "type": "function"
    },
    {
      "inputs": [
        {
          "internalType": "address",
          "name": "account",
          "type": "address"
        },
        {
          "internalType": "uint256",
          "name": "id",
          "type": "uint256"
        }
      ],
      "name": "balanceOf",
      "outputs": [
        {
          "internalType": "uint256",
          "name": "",
          "type": "uint256"
        }
      ],
      "stateMutability": "view",
      "type": "function"
    },
    {
      "inputs": [
        {
          "internalType": "address[]",
          "name": "accounts",
          "type": "address[]"
        },
        {
          "internalType": "uint256[]",
          "name": "ids",
          "type": "uint256[]"
        }
      ],
      "name": "balanceOfBatch",
      "outputs": [
        {
          "internalType": "uint256[]",
          "name": "",
          "type": "uint256[]"
        }
      ],
      "stateMutability": "view",
      "type": "function"
    },
    {
      "inputs": [],
      "name": "getAdmins",
      "outputs": [
        {
          "internalType": "address[]",
          "name": "admins",
          "type": "address[]"
        }
      ],
      "stateMutability": "view",
      "type": "function"
    },
    {
      "inputs": [
        {
          "internalType": "address",
          "name": "admin",
          "type": "address"
        }
      ],
      "name": "isAdmin",
      "outputs": [
        {
          "internalType": "bool",
          "name": "",
          "type": "bool"
        }
      ],
      "stateMutability": "view",
      "type": "function"
    },
    {
      "inputs": [
        {
          "internalType": "address",
          "name": "account",
          "type": "address"
        },
        {
          "internalType": "address",
          "name": "operator",
          "type": "address"
        }
      ],
      "name": "isApprovedForAll",
      "outputs": [
        {
          "internalType": "bool",
          "name": "",
          "type": "bool"
        }
      ],
      "stateMutability": "view",
      "type": "function"
    },
    {
      "inputs": [],
      "name": "owner",
      "outputs": [
        {
          "internalType": "address",
          "name": "",
          "type": "address"
        }
      ],
      "stateMutability": "view",
      "type": "function"
    },
    {
      "inputs": [],
      "name": "renounceOwnership",
      "outputs": [],
      "stateMutability": "nonpayable",
      "type": "function"
    },
    {
      "inputs": [
        {
          "internalType": "address",
          "name": "admin",
          "type": "address"
        }
      ],
      "name": "revokeAdmin",
      "outputs": [],
      "stateMutability": "nonpayable",
      "type": "function"
    },
    {
      "inputs": [
        {
          "internalType": "address",
          "name": "from",
          "type": "address"
        },
        {
          "internalType": "address",
          "name": "to",
          "type": "address"
        },
        {
          "internalType": "uint256[]",
          "name": "ids",
          "type": "uint256[]"
        },
        {
          "internalType": "uint256[]",
          "name": "amounts",
          "type": "uint256[]"
        },
        {
          "internalType": "bytes",
          "name": "data",
          "type": "bytes"
        }
      ],
      "name": "safeBatchTransferFrom",
      "outputs": [],
      "stateMutability": "nonpayable",
      "type": "function"
    },
    {
      "inputs": [
        {
          "internalType": "address",
          "name": "from",
          "type": "address"
        },
        {
          "internalType": "address",
          "name": "to",
          "type": "address"
        },
        {
          "internalType": "uint256",
          "name": "id",
          "type": "uint256"
        },
        {
          "internalType": "uint256",
          "name": "amount",
          "type": "uint256"
        },
        {
          "internalType": "bytes",
          "name": "data",
          "type": "bytes"
        }
      ],
      "name": "safeTransferFrom",
      "outputs": [],
      "stateMutability": "nonpayable",
      "type": "function"
    },
    {
      "inputs": [
        {
          "internalType": "address",
          "name": "operator",
          "type": "address"
        },
        {
          "internalType": "bool",
          "name": "approved",
          "type": "bool"
        }
      ],
      "name": "setApprovalForAll",
      "outputs": [],
      "stateMutability": "nonpayable",
      "type": "function"
    },
    {
      "inputs": [
        {
          "internalType": "address",
          "name": "newOwner",
          "type": "address"
        }
      ],
      "name": "transferOwnership",
      "outputs": [],
      "stateMutability": "nonpayable",
      "type": "function"
    },
    {
      "inputs": [
        {
          "internalType": "bytes4",
          "name": "interfaceId",
          "type": "bytes4"
        }
      ],
      "name": "supportsInterface",
      "outputs": [
        {
          "internalType": "bool",
          "name": "",
          "type": "bool"
        }
      ],
      "stateMutability": "view",
      "type": "function"
    },
    {
      "inputs": [
        {
          "internalType": "address",
          "name": "ashAddress",
          "type": "address"
        }
      ],
      "name": "setAshAddress",
      "outputs": [],
      "stateMutability": "nonpayable",
      "type": "function"
    },
    {
      "inputs": [
        {
          "internalType": "address",
          "name": "signer",
          "type": "address"
        }
      ],
      "name": "setSigner",
      "outputs": [],
      "stateMutability": "nonpayable",
      "type": "function"
    },
    {
      "inputs": [],
      "name": "name",
      "outputs": [
        {
          "internalType": "string",
          "name": "",
          "type": "string"
        }
      ],
      "stateMutability": "view",
      "type": "function"
    },
    {
      "inputs": [
        {
          "internalType": "uint8",
          "name": "v",
          "type": "uint8"
        },
        {
          "internalType": "bytes32",
          "name": "r",
          "type": "bytes32"
        },
        {
          "internalType": "bytes32",
          "name": "s",
          "type": "bytes32"
        }
      ],
      "name": "ALMint",
      "outputs": [],
      "stateMutability": "nonpayable",
      "type": "function"
    },
    {
      "inputs": [],
      "name": "publicMint",
      "outputs": [],
      "stateMutability": "nonpayable",
      "type": "function"
    },
    {
      "inputs": [
        {
          "internalType": "address",
          "name": "to",
          "type": "address"
        },
        {
          "internalType": "uint256[]",
          "name": "ids",
          "type": "uint256[]"
        },
        {
          "internalType": "uint256[]",
          "name": "amounts",
          "type": "uint256[]"
        }
      ],
      "name": "mintBatch",
      "outputs": [],
      "stateMutability": "nonpayable",
      "type": "function"
    },
    {
      "inputs": [
        {
          "internalType": "uint256",
          "name": "tokenId",
          "type": "uint256"
        },
        {
          "internalType": "uint256",
          "name": "newPrice",
          "type": "uint256"
        },
        {
          "internalType": "uint256",
          "name": "maxSupply",
          "type": "uint256"
        },
        {
          "internalType": "string",
          "name": "newURI",
          "type": "string"
        }
      ],
      "name": "initateNewDrop",
      "outputs": [],
      "stateMutability": "nonpayable",
      "type": "function"
    },
    {
      "inputs": [
        {
          "internalType": "uint256",
          "name": "tokenId",
          "type": "uint256"
        }
      ],
      "name": "setActiveToken",
      "outputs": [],
      "stateMutability": "nonpayable",
      "type": "function"
    },
    {
      "inputs": [],
      "name": "toggleALMintState",
      "outputs": [],
      "stateMutability": "nonpayable",
      "type": "function"
    },
    {
      "inputs": [],
      "name": "togglePublicMintState",
      "outputs": [],
      "stateMutability": "nonpayable",
      "type": "function"
    },
    {
      "inputs": [
        {
          "internalType": "uint256",
          "name": "tokenId",
          "type": "uint256"
        },
        {
          "internalType": "string",
          "name": "newURI",
          "type": "string"
        }
      ],
      "name": "addURI",
      "outputs": [],
      "stateMutability": "nonpayable",
      "type": "function"
    },
    {
      "inputs": [
        {
          "internalType": "uint256",
          "name": "tokenId",
          "type": "uint256"
        },
        {
          "internalType": "string",
          "name": "newURI",
          "type": "string"
        }
      ],
      "name": "editURI",
      "outputs": [],
      "stateMutability": "nonpayable",
      "type": "function"
    },
    {
      "inputs": [
        {
          "internalType": "uint256",
          "name": "tokenId",
          "type": "uint256"
        }
      ],
      "name": "uri",
      "outputs": [
        {
          "internalType": "string",
          "name": "",
          "type": "string"
        }
      ],
      "stateMutability": "view",
      "type": "function"
    },
    {
      "inputs": [
        {
          "internalType": "uint256",
          "name": "tokenId",
          "type": "uint256"
        },
        {
          "internalType": "uint256",
          "name": "quantity",
          "type": "uint256"
        }
      ],
      "name": "burn",
      "outputs": [],
      "stateMutability": "nonpayable",
      "type": "function"
    },
    {
      "inputs": [
        {
          "internalType": "uint256[]",
          "name": "ids",
          "type": "uint256[]"
        },
        {
          "internalType": "uint256[]",
          "name": "amounts",
          "type": "uint256[]"
        }
      ],
      "name": "burnBatch",
      "outputs": [],
      "stateMutability": "nonpayable",
      "type": "function"
    },
    {
      "inputs": [
        {
          "internalType": "uint256",
          "name": "tokenId",
          "type": "uint256"
        }
      ],
      "name": "activateTransfer",
      "outputs": [],
      "stateMutability": "nonpayable",
      "type": "function"
    },
    {
      "inputs": [
        {
          "internalType": "address payable",
          "name": "_recipient",
          "type": "address"
        },
        {
          "internalType": "uint256",
          "name": "_royaltyPerCent",
          "type": "uint256"
        }
      ],
      "name": "setRoyalties",
      "outputs": [],
      "stateMutability": "nonpayable",
      "type": "function"
    },
    {
      "inputs": [
        {
          "internalType": "uint256",
          "name": "salePrice",
          "type": "uint256"
        }
      ],
      "name": "royaltyInfo",
      "outputs": [
        {
          "internalType": "address",
          "name": "",
          "type": "address"
        },
        {
          "internalType": "uint256",
          "name": "",
          "type": "uint256"
        }
      ],
      "stateMutability": "view",
      "type": "function"
    },
    {
      "inputs": [
        {
          "internalType": "address",
          "name": "recipient",
          "type": "address"
        }
      ],
      "name": "withdraw",
      "outputs": [],
      "stateMutability": "nonpayable",
      "type": "function"
    }
  ],
  "bytecode": "0x60806040526040518060400160405280600781526020017f4752415649545900000000000000000000000000000000000000000000000000815250600990805190602001906200005192919062000283565b506802fb474098f67c0000600a556064600c556000600d557364d91f12ece7362f91a6f8e7940cd55f05060b92600f60006101000a81548173ffffffffffffffffffffffffffffffffffffffff021916908373ffffffffffffffffffffffffffffffffffffffff1602179055506000601160146101000a81548160ff0219169083151502179055506000601160156101000a81548160ff0219169083151502179055503480156200010157600080fd5b506040518060200160405280600081525062000132620001266200019b60201b60201c565b620001a360201b60201c565b62000143816200026760201b60201c565b506001600e8190555033601060006101000a81548173ffffffffffffffffffffffffffffffffffffffff021916908373ffffffffffffffffffffffffffffffffffffffff160217905550600a600b8190555062000398565b600033905090565b60008060009054906101000a900473ffffffffffffffffffffffffffffffffffffffff169050816000806101000a81548173ffffffffffffffffffffffffffffffffffffffff021916908373ffffffffffffffffffffffffffffffffffffffff1602179055508173ffffffffffffffffffffffffffffffffffffffff168173ffffffffffffffffffffffffffffffffffffffff167f8be0079c531659141344cd1fd0a4f28419497f9722a3daafe3b4186f6b6457e060405160405180910390a35050565b80600390805190602001906200027f92919062000283565b5050565b828054620002919062000362565b90600052602060002090601f016020900481019282620002b5576000855562000301565b82601f10620002d057805160ff191683800117855562000301565b8280016001018555821562000301579182015b8281111562000300578251825591602001919060010190620002e3565b5b50905062000310919062000314565b5090565b5b808211156200032f57600081600090555060010162000315565b5090565b7f4e487b7100000000000000000000000000000000000000000000000000000000600052602260045260246000fd5b600060028204905060018216806200037b57607f821691505b6020821081141562000392576200039162000333565b5b50919050565b615ee580620003a86000396000f3fe608060405234801561001057600080fd5b50600436106102525760003560e01c806383ca4b6f11610146578063cb4b1423116100c3578063debfe14c11610087578063debfe14c14610680578063e4b0f1631461069e578063e985e9c5146106ba578063ef3ef4e5146106ea578063f242432a14610708578063f2fde38b1461072457610252565b8063cb4b142314610603578063cd10ba771461060d578063cef6d36814610617578063d2c0a6ea14610648578063d81d0a151461066457610252565b8063af07704c1161010a578063af07704c14610563578063b1a198d01461057f578063b390c0ab146105af578063bf9bb8fa146105cb578063c1990e4d146105e757610252565b806383ca4b6f146104d35780638c7ea24b146104ef5780638da5cb5b1461050b578063a22cb46514610529578063acb4f9411461054557610252565b80632eb2c2d6116101d45780635c371672116101985780635c371672146104575780636c19e783146104755780636d73e66914610491578063715018a6146104ad57806374ef3962146104b757610252565b80632eb2c2d6146103b357806331ae450b146103cf57806337789850146103ed5780634e1273f41461040b57806351cff8d91461043b57610252565b806322f4596f1161021b57806322f4596f14610323578063232d556d1461034157806324d7806c1461035d57806326092b831461038d5780632d3456701461039757610252565b8062fdd58e1461025757806301ffc9a71461028757806306fdde03146102b75780630e89341c146102d55780631594579014610305575b600080fd5b610271600480360381019061026c9190613e68565b610740565b60405161027e9190613eb7565b60405180910390f35b6102a1600480360381019061029c9190613f2a565b61080a565b6040516102ae9190613f72565b60405180910390f35b6102bf6108a4565b6040516102cc9190614026565b60405180910390f35b6102ef60048036038101906102ea9190614048565b610936565b6040516102fc9190614026565b60405180910390f35b61030d6109db565b60405161031a9190613eb7565b60405180910390f35b61032b6109e1565b6040516103389190613eb7565b60405180910390f35b61035b600480360381019061035691906140da565b6109e7565b005b6103776004803603810190610372919061413a565b610a9f565b6040516103849190613f72565b60405180910390f35b610395610af9565b005b6103b160048036038101906103ac919061413a565b610dc0565b005b6103cd60048036038101906103c8919061435a565b610ec8565b005b6103d7610f69565b6040516103e491906144e7565b60405180910390f35b6103f561104b565b6040516104029190613eb7565b60405180910390f35b610425600480360381019061042091906145cc565b611051565b6040516104329190614702565b60405180910390f35b6104556004803603810190610450919061413a565b61116a565b005b61045f611244565b60405161046c9190613eb7565b60405180910390f35b61048f600480360381019061048a919061413a565b61124a565b005b6104ab60048036038101906104a6919061413a565b61131e565b005b6104b5611425565b005b6104d160048036038101906104cc919061413a565b6114ad565b005b6104ed60048036038101906104e89190614724565b611581565b005b610509600480360381019061050491906147da565b611590565b005b61051361166c565b6040516105209190614829565b60405180910390f35b610543600480360381019061053e9190614870565b611695565b005b61054d6116ab565b60405161055a9190613f72565b60405180910390f35b61057d60048036038101906105789190614048565b6116be565b005b610599600480360381019061059491906148b0565b61177d565b6040516105a69190613f72565b60405180910390f35b6105c960048036038101906105c491906148f0565b6117ac565b005b6105e560048036038101906105e0919061499f565b6117bb565b005b61060160048036038101906105fc91906149f2565b61199a565b005b61060b611a71565b005b610615611b2d565b005b610631600480360381019061062c9190614048565b611be9565b60405161063f929190614a7a565b60405180910390f35b610662600480360381019061065d91906140da565b611c95565b005b61067e60048036038101906106799190614aa3565b611d4d565b005b610688611ecc565b6040516106959190614829565b60405180910390f35b6106b860048036038101906106b39190614048565b611ef2565b005b6106d460048036038101906106cf9190614b2e565b611f8c565b6040516106e19190613f72565b60405180910390f35b6106f2612020565b6040516106ff9190613f72565b60405180910390f35b610722600480360381019061071d9190614b6e565b612033565b005b61073e6004803603810190610739919061413a565b6120d4565b005b60008073ffffffffffffffffffffffffffffffffffffffff168373ffffffffffffffffffffffffffffffffffffffff1614156107b1576040517f08c379a00000000000000000000000000000000000000000000000000000000081526004016107a890614c77565b60405180910390fd5b6001600083815260200190815260200160002060008473ffffffffffffffffffffffffffffffffffffffff1673ffffffffffffffffffffffffffffffffffffffff16815260200190815260200160002054905092915050565b6000610815826121cc565b80610825575061082482612246565b5b8061088d57507f2a55205a000000000000000000000000000000000000000000000000000000007bffffffffffffffffffffffffffffffffffffffffffffffffffffffff1916827bffffffffffffffffffffffffffffffffffffffffffffffffffffffff1916145b8061089d575061089c826121cc565b5b9050919050565b6060600980546108b390614cc6565b80601f01602080910402602001604051908101604052809291908181526020018280546108df90614cc6565b801561092c5780601f106109015761010080835404028352916020019161092c565b820191906000526020600020905b81548152906001019060200180831161090f57829003601f168201915b5050505050905090565b606060076000838152602001908152602001600020805461095690614cc6565b80601f016020809104026020016040519081016040528092919081815260200182805461098290614cc6565b80156109cf5780601f106109a4576101008083540402835291602001916109cf565b820191906000526020600020905b8154815290600101906020018083116109b257829003601f168201915b50505050509050919050565b600d5481565b600c5481565b3373ffffffffffffffffffffffffffffffffffffffff16610a0661166c565b73ffffffffffffffffffffffffffffffffffffffff161480610a385750610a3733600461232890919063ffffffff16565b5b610a77576040517f08c379a0000000000000000000000000000000000000000000000000000000008152600401610a6e90614d6a565b60405180910390fd5b8181600760008681526020019081526020016000209190610a99929190613d1d565b50505050565b60008173ffffffffffffffffffffffffffffffffffffffff16610ac061166c565b73ffffffffffffffffffffffffffffffffffffffff161480610af25750610af182600461232890919063ffffffff16565b5b9050919050565b601160159054906101000a900460ff16610b48576040517f08c379a0000000000000000000000000000000000000000000000000000000008152600401610b3f90614dd6565b60405180910390fd5b60066000600e54815260200190815260200160002060003373ffffffffffffffffffffffffffffffffffffffff1673ffffffffffffffffffffffffffffffffffffffff16815260200190815260200160002060009054906101000a900460ff1615610be8576040517f08c379a0000000000000000000000000000000000000000000000000000000008152600401610bdf90614e42565b60405180910390fd5b600c54600d5410610c2e576040517f08c379a0000000000000000000000000000000000000000000000000000000008152600401610c2590614eae565b60405180910390fd5b600f60009054906101000a900473ffffffffffffffffffffffffffffffffffffffff1673ffffffffffffffffffffffffffffffffffffffff166323b872dd33601060009054906101000a900473ffffffffffffffffffffffffffffffffffffffff16600a546040518463ffffffff1660e01b8152600401610cb193929190614ece565b6020604051808303816000875af1158015610cd0573d6000803e3d6000fd5b505050506040513d601f19601f82011682018060405250810190610cf49190614f1a565b50610d3933600e5460016040518060400160405280600481526020017f3078303000000000000000000000000000000000000000000000000000000000815250612358565b600160066000600e54815260200190815260200160002060003373ffffffffffffffffffffffffffffffffffffffff1673ffffffffffffffffffffffffffffffffffffffff16815260200190815260200160002060006101000a81548160ff0219169083151502179055506001600d6000828254610db79190614f76565b92505081905550565b610dc86124ef565b73ffffffffffffffffffffffffffffffffffffffff16610de661166c565b73ffffffffffffffffffffffffffffffffffffffff1614610e3c576040517f08c379a0000000000000000000000000000000000000000000000000000000008152600401610e3390615018565b60405180910390fd5b610e5081600461232890919063ffffffff16565b15610ec5573373ffffffffffffffffffffffffffffffffffffffff168173ffffffffffffffffffffffffffffffffffffffff167f7c0c3c84c67c85fcac635147348bfe374c24a1a93d0366d1cfe9d8853cbf89d560405160405180910390a3610ec38160046124f790919063ffffffff16565b505b50565b610ed06124ef565b73ffffffffffffffffffffffffffffffffffffffff168573ffffffffffffffffffffffffffffffffffffffff161480610f165750610f1585610f106124ef565b611f8c565b5b610f55576040517f08c379a0000000000000000000000000000000000000000000000000000000008152600401610f4c906150aa565b60405180910390fd5b610f628585858585612527565b5050505050565b6060610f75600461283e565b67ffffffffffffffff811115610f8e57610f8d614167565b5b604051908082528060200260200182016040528015610fbc5781602001602082028036833780820191505090505b50905060005b610fcc600461283e565b81101561104757610fe781600461285390919063ffffffff16565b828281518110610ffa57610ff96150ca565b5b602002602001019073ffffffffffffffffffffffffffffffffffffffff16908173ffffffffffffffffffffffffffffffffffffffff1681525050808061103f906150f9565b915050610fc2565b5090565b600e5481565b60608151835114611097576040517f08c379a000000000000000000000000000000000000000000000000000000000815260040161108e906151b4565b60405180910390fd5b6000835167ffffffffffffffff8111156110b4576110b3614167565b5b6040519080825280602002602001820160405280156110e25781602001602082028036833780820191505090505b50905060005b845181101561115f5761112f858281518110611107576111066150ca565b5b6020026020010151858381518110611122576111216150ca565b5b6020026020010151610740565b828281518110611142576111416150ca565b5b60200260200101818152505080611158906150f9565b90506110e8565b508091505092915050565b3373ffffffffffffffffffffffffffffffffffffffff1661118961166c565b73ffffffffffffffffffffffffffffffffffffffff1614806111bb57506111ba33600461232890919063ffffffff16565b5b6111fa576040517f08c379a00000000000000000000000000000000000000000000000000000000081526004016111f190614d6a565b60405180910390fd5b8073ffffffffffffffffffffffffffffffffffffffff166108fc479081150290604051600060405180830381858888f19350505050158015611240573d6000803e3d6000fd5b5050565b600a5481565b3373ffffffffffffffffffffffffffffffffffffffff1661126961166c565b73ffffffffffffffffffffffffffffffffffffffff16148061129b575061129a33600461232890919063ffffffff16565b5b6112da576040517f08c379a00000000000000000000000000000000000000000000000000000000081526004016112d190614d6a565b60405180910390fd5b80601160006101000a81548173ffffffffffffffffffffffffffffffffffffffff021916908373ffffffffffffffffffffffffffffffffffffffff16021790555050565b6113266124ef565b73ffffffffffffffffffffffffffffffffffffffff1661134461166c565b73ffffffffffffffffffffffffffffffffffffffff161461139a576040517f08c379a000000000000000000000000000000000000000000000000000000000815260040161139190615018565b60405180910390fd5b6113ae81600461232890919063ffffffff16565b611422573373ffffffffffffffffffffffffffffffffffffffff168173ffffffffffffffffffffffffffffffffffffffff167f7e1a1a08d52e4ba0e21554733d66165fd5151f99460116223d9e3a608eec5cb160405160405180910390a361142081600461286d90919063ffffffff16565b505b50565b61142d6124ef565b73ffffffffffffffffffffffffffffffffffffffff1661144b61166c565b73ffffffffffffffffffffffffffffffffffffffff16146114a1576040517f08c379a000000000000000000000000000000000000000000000000000000000815260040161149890615018565b60405180910390fd5b6114ab600061289d565b565b3373ffffffffffffffffffffffffffffffffffffffff166114cc61166c565b73ffffffffffffffffffffffffffffffffffffffff1614806114fe57506114fd33600461232890919063ffffffff16565b5b61153d576040517f08c379a000000000000000000000000000000000000000000000000000000000815260040161153490614d6a565b60405180910390fd5b80600f60006101000a81548173ffffffffffffffffffffffffffffffffffffffff021916908373ffffffffffffffffffffffffffffffffffffffff16021790555050565b61158c338383612961565b5050565b3373ffffffffffffffffffffffffffffffffffffffff166115af61166c565b73ffffffffffffffffffffffffffffffffffffffff1614806115e157506115e033600461232890919063ffffffff16565b5b611620576040517f08c379a000000000000000000000000000000000000000000000000000000000815260040161161790614d6a565b60405180910390fd5b81601060006101000a81548173ffffffffffffffffffffffffffffffffffffffff021916908373ffffffffffffffffffffffffffffffffffffffff16021790555080600b819055505050565b60008060009054906101000a900473ffffffffffffffffffffffffffffffffffffffff16905090565b6116a76116a06124ef565b8383612c14565b5050565b601160159054906101000a900460ff1681565b3373ffffffffffffffffffffffffffffffffffffffff166116dd61166c565b73ffffffffffffffffffffffffffffffffffffffff16148061170f575061170e33600461232890919063ffffffff16565b5b61174e576040517f08c379a000000000000000000000000000000000000000000000000000000000815260040161174590614d6a565b60405180910390fd5b60016008600083815260200190815260200160002060006101000a81548160ff02191690831515021790555050565b60066020528160005260406000206020528060005260406000206000915091509054906101000a900460ff1681565b6117b7338383612d81565b5050565b6117c6838383612fa0565b611805576040517f08c379a00000000000000000000000000000000000000000000000000000000081526004016117fc90615220565b60405180910390fd5b600f60009054906101000a900473ffffffffffffffffffffffffffffffffffffffff1673ffffffffffffffffffffffffffffffffffffffff166323b872dd33601060009054906101000a900473ffffffffffffffffffffffffffffffffffffffff16600a546040518463ffffffff1660e01b815260040161188893929190614ece565b6020604051808303816000875af11580156118a7573d6000803e3d6000fd5b505050506040513d601f19601f820116820180604052508101906118cb9190614f1a565b5061191033600e5460016040518060400160405280600481526020017f3078303000000000000000000000000000000000000000000000000000000000815250612358565b600160066000600e54815260200190815260200160002060003373ffffffffffffffffffffffffffffffffffffffff1673ffffffffffffffffffffffffffffffffffffffff16815260200190815260200160002060006101000a81548160ff0219169083151502179055506001600d600082825461198e9190614f76565b92505081905550505050565b3373ffffffffffffffffffffffffffffffffffffffff166119b961166c565b73ffffffffffffffffffffffffffffffffffffffff1614806119eb57506119ea33600461232890919063ffffffff16565b5b611a2a576040517f08c379a0000000000000000000000000000000000000000000000000000000008152600401611a2190614d6a565b60405180910390fd5b84600e8190555083600a8190555082600c819055508181600760008881526020019081526020016000209190611a61929190613d1d565b506000600d819055505050505050565b3373ffffffffffffffffffffffffffffffffffffffff16611a9061166c565b73ffffffffffffffffffffffffffffffffffffffff161480611ac25750611ac133600461232890919063ffffffff16565b5b611b01576040517f08c379a0000000000000000000000000000000000000000000000000000000008152600401611af890614d6a565b60405180910390fd5b601160149054906101000a900460ff1615601160146101000a81548160ff021916908315150217905550565b3373ffffffffffffffffffffffffffffffffffffffff16611b4c61166c565b73ffffffffffffffffffffffffffffffffffffffff161480611b7e5750611b7d33600461232890919063ffffffff16565b5b611bbd576040517f08c379a0000000000000000000000000000000000000000000000000000000008152600401611bb490614d6a565b60405180910390fd5b601160159054906101000a900460ff1615601160156101000a81548160ff021916908315150217905550565b600080600073ffffffffffffffffffffffffffffffffffffffff16601060009054906101000a900473ffffffffffffffffffffffffffffffffffffffff1673ffffffffffffffffffffffffffffffffffffffff1614611c8857601060009054906101000a900473ffffffffffffffffffffffffffffffffffffffff166064600b5485611c759190615240565b611c7f91906152c9565b91509150611c90565b600080915091505b915091565b3373ffffffffffffffffffffffffffffffffffffffff16611cb461166c565b73ffffffffffffffffffffffffffffffffffffffff161480611ce65750611ce533600461232890919063ffffffff16565b5b611d25576040517f08c379a0000000000000000000000000000000000000000000000000000000008152600401611d1c90614d6a565b60405180910390fd5b8181600760008681526020019081526020016000209190611d47929190613d1d565b50505050565b3373ffffffffffffffffffffffffffffffffffffffff16611d6c61166c565b73ffffffffffffffffffffffffffffffffffffffff161480611d9e5750611d9d33600461232890919063ffffffff16565b5b611ddd576040517f08c379a0000000000000000000000000000000000000000000000000000000008152600401611dd490614d6a565b60405180910390fd5b6000805b8251811015611e2557828181518110611dfd57611dfc6150ca565b5b602002602001015182611e109190614f76565b91508080611e1d906150f9565b915050611de1565b50600c54600d5410611e6c576040517f08c379a0000000000000000000000000000000000000000000000000000000008152600401611e6390614eae565b60405180910390fd5b611ead8484846040518060400160405280600381526020017f3078300000000000000000000000000000000000000000000000000000000000815250613116565b80600d6000828254611ebf9190614f76565b9250508190555050505050565b600f60009054906101000a900473ffffffffffffffffffffffffffffffffffffffff1681565b3373ffffffffffffffffffffffffffffffffffffffff16611f1161166c565b73ffffffffffffffffffffffffffffffffffffffff161480611f435750611f4233600461232890919063ffffffff16565b5b611f82576040517f08c379a0000000000000000000000000000000000000000000000000000000008152600401611f7990614d6a565b60405180910390fd5b80600e8190555050565b6000600260008473ffffffffffffffffffffffffffffffffffffffff1673ffffffffffffffffffffffffffffffffffffffff16815260200190815260200160002060008373ffffffffffffffffffffffffffffffffffffffff1673ffffffffffffffffffffffffffffffffffffffff16815260200190815260200160002060009054906101000a900460ff16905092915050565b601160149054906101000a900460ff1681565b61203b6124ef565b73ffffffffffffffffffffffffffffffffffffffff168573ffffffffffffffffffffffffffffffffffffffff16148061208157506120808561207b6124ef565b611f8c565b5b6120c0576040517f08c379a00000000000000000000000000000000000000000000000000000000081526004016120b79061536c565b60405180910390fd5b6120cd8585858585613335565b5050505050565b6120dc6124ef565b73ffffffffffffffffffffffffffffffffffffffff166120fa61166c565b73ffffffffffffffffffffffffffffffffffffffff1614612150576040517f08c379a000000000000000000000000000000000000000000000000000000000815260040161214790615018565b60405180910390fd5b600073ffffffffffffffffffffffffffffffffffffffff168173ffffffffffffffffffffffffffffffffffffffff1614156121c0576040517f08c379a00000000000000000000000000000000000000000000000000000000081526004016121b7906153fe565b60405180910390fd5b6121c98161289d565b50565b60007f553e757e000000000000000000000000000000000000000000000000000000007bffffffffffffffffffffffffffffffffffffffffffffffffffffffff1916827bffffffffffffffffffffffffffffffffffffffffffffffffffffffff1916148061223f575061223e82612246565b5b9050919050565b60007fd9b67a26000000000000000000000000000000000000000000000000000000007bffffffffffffffffffffffffffffffffffffffffffffffffffffffff1916827bffffffffffffffffffffffffffffffffffffffffffffffffffffffff1916148061231157507f0e89341c000000000000000000000000000000000000000000000000000000007bffffffffffffffffffffffffffffffffffffffffffffffffffffffff1916827bffffffffffffffffffffffffffffffffffffffffffffffffffffffff1916145b806123215750612320826135ba565b5b9050919050565b6000612350836000018373ffffffffffffffffffffffffffffffffffffffff1660001b613624565b905092915050565b600073ffffffffffffffffffffffffffffffffffffffff168473ffffffffffffffffffffffffffffffffffffffff1614156123c8576040517f08c379a00000000000000000000000000000000000000000000000000000000081526004016123bf90615490565b60405180910390fd5b60006123d26124ef565b90506123f3816000876123e488613647565b6123ed88613647565b876136c1565b826001600086815260200190815260200160002060008773ffffffffffffffffffffffffffffffffffffffff1673ffffffffffffffffffffffffffffffffffffffff16815260200190815260200160002060008282546124539190614f76565b925050819055508473ffffffffffffffffffffffffffffffffffffffff16600073ffffffffffffffffffffffffffffffffffffffff168273ffffffffffffffffffffffffffffffffffffffff167fc3d58168c5ae7397731d063d5bbf3d657854427343f4c083240f7aacaa2d0f6287876040516124d19291906154b0565b60405180910390a46124e88160008787878761379a565b5050505050565b600033905090565b600061251f836000018373ffffffffffffffffffffffffffffffffffffffff1660001b613972565b905092915050565b815183511461256b576040517f08c379a00000000000000000000000000000000000000000000000000000000081526004016125629061554b565b60405180910390fd5b600073ffffffffffffffffffffffffffffffffffffffff168473ffffffffffffffffffffffffffffffffffffffff1614156125db576040517f08c379a00000000000000000000000000000000000000000000000000000000081526004016125d2906155dd565b60405180910390fd5b60006125e56124ef565b90506125f58187878787876136c1565b60005b84518110156127a9576000858281518110612616576126156150ca565b5b602002602001015190506000858381518110612635576126346150ca565b5b6020026020010151905060006001600084815260200190815260200160002060008b73ffffffffffffffffffffffffffffffffffffffff1673ffffffffffffffffffffffffffffffffffffffff168152602001908152602001600020549050818110156126d7576040517f08c379a00000000000000000000000000000000000000000000000000000000081526004016126ce9061566f565b60405180910390fd5b8181036001600085815260200190815260200160002060008c73ffffffffffffffffffffffffffffffffffffffff1673ffffffffffffffffffffffffffffffffffffffff16815260200190815260200160002081905550816001600085815260200190815260200160002060008b73ffffffffffffffffffffffffffffffffffffffff1673ffffffffffffffffffffffffffffffffffffffff168152602001908152602001600020600082825461278e9190614f76565b92505081905550505050806127a2906150f9565b90506125f8565b508473ffffffffffffffffffffffffffffffffffffffff168673ffffffffffffffffffffffffffffffffffffffff168273ffffffffffffffffffffffffffffffffffffffff167f4a39dc06d4c0dbc64b70af90fd698a233a518aa5d07e595d983b8c0526c8f7fb878760405161282092919061568f565b60405180910390a4612836818787878787613a86565b505050505050565b600061284c82600001613c5e565b9050919050565b60006128628360000183613c6f565b60001c905092915050565b6000612895836000018373ffffffffffffffffffffffffffffffffffffffff1660001b613c9a565b905092915050565b60008060009054906101000a900473ffffffffffffffffffffffffffffffffffffffff169050816000806101000a81548173ffffffffffffffffffffffffffffffffffffffff021916908373ffffffffffffffffffffffffffffffffffffffff1602179055508173ffffffffffffffffffffffffffffffffffffffff168173ffffffffffffffffffffffffffffffffffffffff167f8be0079c531659141344cd1fd0a4f28419497f9722a3daafe3b4186f6b6457e060405160405180910390a35050565b600073ffffffffffffffffffffffffffffffffffffffff168373ffffffffffffffffffffffffffffffffffffffff1614156129d1576040517f08c379a00000000000000000000000000000000000000000000000000000000081526004016129c890615738565b60405180910390fd5b8051825114612a15576040517f08c379a0000000000000000000000000000000000000000000000000000000008152600401612a0c9061554b565b60405180910390fd5b6000612a1f6124ef565b9050612a3f818560008686604051806020016040528060008152506136c1565b60005b8351811015612b8e576000848281518110612a6057612a5f6150ca565b5b602002602001015190506000848381518110612a7f57612a7e6150ca565b5b6020026020010151905060006001600084815260200190815260200160002060008973ffffffffffffffffffffffffffffffffffffffff1673ffffffffffffffffffffffffffffffffffffffff16815260200190815260200160002054905081811015612b21576040517f08c379a0000000000000000000000000000000000000000000000000000000008152600401612b18906157ca565b60405180910390fd5b8181036001600085815260200190815260200160002060008a73ffffffffffffffffffffffffffffffffffffffff1673ffffffffffffffffffffffffffffffffffffffff168152602001908152602001600020819055505050508080612b86906150f9565b915050612a42565b50600073ffffffffffffffffffffffffffffffffffffffff168473ffffffffffffffffffffffffffffffffffffffff168273ffffffffffffffffffffffffffffffffffffffff167f4a39dc06d4c0dbc64b70af90fd698a233a518aa5d07e595d983b8c0526c8f7fb8686604051612c0692919061568f565b60405180910390a450505050565b8173ffffffffffffffffffffffffffffffffffffffff168373ffffffffffffffffffffffffffffffffffffffff161415612c83576040517f08c379a0000000000000000000000000000000000000000000000000000000008152600401612c7a9061585c565b60405180910390fd5b80600260008573ffffffffffffffffffffffffffffffffffffffff1673ffffffffffffffffffffffffffffffffffffffff16815260200190815260200160002060008473ffffffffffffffffffffffffffffffffffffffff1673ffffffffffffffffffffffffffffffffffffffff16815260200190815260200160002060006101000a81548160ff0219169083151502179055508173ffffffffffffffffffffffffffffffffffffffff168373ffffffffffffffffffffffffffffffffffffffff167f17307eab39ab6107e8899845ad3d59bd9653f200f220920489ca2b5937696c3183604051612d749190613f72565b60405180910390a3505050565b600073ffffffffffffffffffffffffffffffffffffffff168373ffffffffffffffffffffffffffffffffffffffff161415612df1576040517f08c379a0000000000000000000000000000000000000000000000000000000008152600401612de890615738565b60405180910390fd5b6000612dfb6124ef565b9050612e2b81856000612e0d87613647565b612e1687613647565b604051806020016040528060008152506136c1565b60006001600085815260200190815260200160002060008673ffffffffffffffffffffffffffffffffffffffff1673ffffffffffffffffffffffffffffffffffffffff16815260200190815260200160002054905082811015612ec3576040517f08c379a0000000000000000000000000000000000000000000000000000000008152600401612eba906157ca565b60405180910390fd5b8281036001600086815260200190815260200160002060008773ffffffffffffffffffffffffffffffffffffffff1673ffffffffffffffffffffffffffffffffffffffff16815260200190815260200160002081905550600073ffffffffffffffffffffffffffffffffffffffff168573ffffffffffffffffffffffffffffffffffffffff168373ffffffffffffffffffffffffffffffffffffffff167fc3d58168c5ae7397731d063d5bbf3d657854427343f4c083240f7aacaa2d0f628787604051612f919291906154b0565b60405180910390a45050505050565b600060013330600e54601160149054906101000a900460ff1660066000600e54815260200190815260200160002060003373ffffffffffffffffffffffffffffffffffffffff1673ffffffffffffffffffffffffffffffffffffffff16815260200190815260200160002060009054906101000a900460ff16600c54600d54106040516020016130359695949392919061592d565b6040516020818303038152906040528051906020012060405160200161305b9190615a15565b60405160208183030381529060405280519060200120858585604051600081526020016040526040516130919493929190615a59565b6020604051602081039080840390855afa1580156130b3573d6000803e3d6000fd5b5050506020604051035173ffffffffffffffffffffffffffffffffffffffff16601160009054906101000a900473ffffffffffffffffffffffffffffffffffffffff1673ffffffffffffffffffffffffffffffffffffffff161490509392505050565b600073ffffffffffffffffffffffffffffffffffffffff168473ffffffffffffffffffffffffffffffffffffffff161415613186576040517f08c379a000000000000000000000000000000000000000000000000000000000815260040161317d90615490565b60405180910390fd5b81518351146131ca576040517f08c379a00000000000000000000000000000000000000000000000000000000081526004016131c19061554b565b60405180910390fd5b60006131d46124ef565b90506131e5816000878787876136c1565b60005b845181101561329f57838181518110613204576132036150ca565b5b602002602001015160016000878481518110613223576132226150ca565b5b6020026020010151815260200190815260200160002060008873ffffffffffffffffffffffffffffffffffffffff1673ffffffffffffffffffffffffffffffffffffffff16815260200190815260200160002060008282546132859190614f76565b925050819055508080613297906150f9565b9150506131e8565b508473ffffffffffffffffffffffffffffffffffffffff16600073ffffffffffffffffffffffffffffffffffffffff168273ffffffffffffffffffffffffffffffffffffffff167f4a39dc06d4c0dbc64b70af90fd698a233a518aa5d07e595d983b8c0526c8f7fb878760405161331792919061568f565b60405180910390a461332e81600087878787613a86565b5050505050565b600073ffffffffffffffffffffffffffffffffffffffff168473ffffffffffffffffffffffffffffffffffffffff1614156133a5576040517f08c379a000000000000000000000000000000000000000000000000000000000815260040161339c906155dd565b60405180910390fd5b60006133af6124ef565b90506133cf8187876133c088613647565b6133c988613647565b876136c1565b60006001600086815260200190815260200160002060008873ffffffffffffffffffffffffffffffffffffffff1673ffffffffffffffffffffffffffffffffffffffff16815260200190815260200160002054905083811015613467576040517f08c379a000000000000000000000000000000000000000000000000000000000815260040161345e9061566f565b60405180910390fd5b8381036001600087815260200190815260200160002060008973ffffffffffffffffffffffffffffffffffffffff1673ffffffffffffffffffffffffffffffffffffffff16815260200190815260200160002081905550836001600087815260200190815260200160002060008873ffffffffffffffffffffffffffffffffffffffff1673ffffffffffffffffffffffffffffffffffffffff168152602001908152602001600020600082825461351e9190614f76565b925050819055508573ffffffffffffffffffffffffffffffffffffffff168773ffffffffffffffffffffffffffffffffffffffff168373ffffffffffffffffffffffffffffffffffffffff167fc3d58168c5ae7397731d063d5bbf3d657854427343f4c083240f7aacaa2d0f62888860405161359b9291906154b0565b60405180910390a46135b182888888888861379a565b50505050505050565b60007f01ffc9a7000000000000000000000000000000000000000000000000000000007bffffffffffffffffffffffffffffffffffffffffffffffffffffffff1916827bffffffffffffffffffffffffffffffffffffffffffffffffffffffff1916149050919050565b600080836001016000848152602001908152602001600020541415905092915050565b60606000600167ffffffffffffffff81111561366657613665614167565b5b6040519080825280602002602001820160405280156136945781602001602082028036833780820191505090505b50905082816000815181106136ac576136ab6150ca565b5b60200260200101818152505080915050919050565b60005b835181101561379157600073ffffffffffffffffffffffffffffffffffffffff168673ffffffffffffffffffffffffffffffffffffffff16148061373f57506008600085838151811061371a576137196150ca565b5b6020026020010151815260200190815260200160002060009054906101000a900460ff165b61377e576040517f08c379a000000000000000000000000000000000000000000000000000000000815260040161377590615aea565b60405180910390fd5b8080613789906150f9565b9150506136c4565b50505050505050565b6137b98473ffffffffffffffffffffffffffffffffffffffff16613d0a565b1561396a578373ffffffffffffffffffffffffffffffffffffffff1663f23a6e6187878686866040518663ffffffff1660e01b81526004016137ff959493929190615b5f565b6020604051808303816000875af192505050801561383b57506040513d601f19601f820116820180604052508101906138389190615bce565b60015b6138e157613847615c08565b806308c379a014156138a4575061385c615c2a565b8061386757506138a6565b806040517f08c379a000000000000000000000000000000000000000000000000000000000815260040161389b9190614026565b60405180910390fd5b505b6040517f08c379a00000000000000000000000000000000000000000000000000000000081526004016138d890615d32565b60405180910390fd5b63f23a6e6160e01b7bffffffffffffffffffffffffffffffffffffffffffffffffffffffff1916817bffffffffffffffffffffffffffffffffffffffffffffffffffffffff191614613968576040517f08c379a000000000000000000000000000000000000000000000000000000000815260040161395f90615dc4565b60405180910390fd5b505b505050505050565b60008083600101600084815260200190815260200160002054905060008114613a7a5760006001826139a49190615de4565b90506000600186600001805490506139bc9190615de4565b9050818114613a2b5760008660000182815481106139dd576139dc6150ca565b5b9060005260206000200154905080876000018481548110613a0157613a006150ca565b5b90600052602060002001819055508387600101600083815260200190815260200160002081905550505b85600001805480613a3f57613a3e615e18565b5b600190038181906000526020600020016000905590558560010160008681526020019081526020016000206000905560019350505050613a80565b60009150505b92915050565b613aa58473ffffffffffffffffffffffffffffffffffffffff16613d0a565b15613c56578373ffffffffffffffffffffffffffffffffffffffff1663bc197c8187878686866040518663ffffffff1660e01b8152600401613aeb959493929190615e47565b6020604051808303816000875af1925050508015613b2757506040513d601f19601f82011682018060405250810190613b249190615bce565b60015b613bcd57613b33615c08565b806308c379a01415613b905750613b48615c2a565b80613b535750613b92565b806040517f08c379a0000000000000000000000000000000000000000000000000000000008152600401613b879190614026565b60405180910390fd5b505b6040517f08c379a0000000000000000000000000000000000000000000000000000000008152600401613bc490615d32565b60405180910390fd5b63bc197c8160e01b7bffffffffffffffffffffffffffffffffffffffffffffffffffffffff1916817bffffffffffffffffffffffffffffffffffffffffffffffffffffffff191614613c54576040517f08c379a0000000000000000000000000000000000000000000000000000000008152600401613c4b90615dc4565b60405180910390fd5b505b505050505050565b600081600001805490509050919050565b6000826000018281548110613c8757613c866150ca565b5b9060005260206000200154905092915050565b6000613ca68383613624565b613cff578260000182908060018154018082558091505060019003906000526020600020016000909190919091505582600001805490508360010160008481526020019081526020016000208190555060019050613d04565b600090505b92915050565b600080823b905060008111915050919050565b828054613d2990614cc6565b90600052602060002090601f016020900481019282613d4b5760008555613d92565b82601f10613d6457803560ff1916838001178555613d92565b82800160010185558215613d92579182015b82811115613d91578235825591602001919060010190613d76565b5b509050613d9f9190613da3565b5090565b5b80821115613dbc576000816000905550600101613da4565b5090565b6000604051905090565b600080fd5b600080fd5b600073ffffffffffffffffffffffffffffffffffffffff82169050919050565b6000613dff82613dd4565b9050919050565b613e0f81613df4565b8114613e1a57600080fd5b50565b600081359050613e2c81613e06565b92915050565b6000819050919050565b613e4581613e32565b8114613e5057600080fd5b50565b600081359050613e6281613e3c565b92915050565b60008060408385031215613e7f57613e7e613dca565b5b6000613e8d85828601613e1d565b9250506020613e9e85828601613e53565b9150509250929050565b613eb181613e32565b82525050565b6000602082019050613ecc6000830184613ea8565b92915050565b60007fffffffff0000000000000000000000000000000000000000000000000000000082169050919050565b613f0781613ed2565b8114613f1257600080fd5b50565b600081359050613f2481613efe565b92915050565b600060208284031215613f4057613f3f613dca565b5b6000613f4e84828501613f15565b91505092915050565b60008115159050919050565b613f6c81613f57565b82525050565b6000602082019050613f876000830184613f63565b92915050565b600081519050919050565b600082825260208201905092915050565b60005b83811015613fc7578082015181840152602081019050613fac565b83811115613fd6576000848401525b50505050565b6000601f19601f8301169050919050565b6000613ff882613f8d565b6140028185613f98565b9350614012818560208601613fa9565b61401b81613fdc565b840191505092915050565b600060208201905081810360008301526140408184613fed565b905092915050565b60006020828403121561405e5761405d613dca565b5b600061406c84828501613e53565b91505092915050565b600080fd5b600080fd5b600080fd5b60008083601f84011261409a57614099614075565b5b8235905067ffffffffffffffff8111156140b7576140b661407a565b5b6020830191508360018202830111156140d3576140d261407f565b5b9250929050565b6000806000604084860312156140f3576140f2613dca565b5b600061410186828701613e53565b935050602084013567ffffffffffffffff81111561412257614121613dcf565b5b61412e86828701614084565b92509250509250925092565b6000602082840312156141505761414f613dca565b5b600061415e84828501613e1d565b91505092915050565b7f4e487b7100000000000000000000000000000000000000000000000000000000600052604160045260246000fd5b61419f82613fdc565b810181811067ffffffffffffffff821117156141be576141bd614167565b5b80604052505050565b60006141d1613dc0565b90506141dd8282614196565b919050565b600067ffffffffffffffff8211156141fd576141fc614167565b5b602082029050602081019050919050565b600061422161421c846141e2565b6141c7565b905080838252602082019050602084028301858111156142445761424361407f565b5b835b8181101561426d57806142598882613e53565b845260208401935050602081019050614246565b5050509392505050565b600082601f83011261428c5761428b614075565b5b813561429c84826020860161420e565b91505092915050565b600080fd5b600067ffffffffffffffff8211156142c5576142c4614167565b5b6142ce82613fdc565b9050602081019050919050565b82818337600083830152505050565b60006142fd6142f8846142aa565b6141c7565b905082815260208101848484011115614319576143186142a5565b5b6143248482856142db565b509392505050565b600082601f83011261434157614340614075565b5b81356143518482602086016142ea565b91505092915050565b600080600080600060a0868803121561437657614375613dca565b5b600061438488828901613e1d565b955050602061439588828901613e1d565b945050604086013567ffffffffffffffff8111156143b6576143b5613dcf565b5b6143c288828901614277565b935050606086013567ffffffffffffffff8111156143e3576143e2613dcf565b5b6143ef88828901614277565b925050608086013567ffffffffffffffff8111156144105761440f613dcf565b5b61441c8882890161432c565b9150509295509295909350565b600081519050919050565b600082825260208201905092915050565b6000819050602082019050919050565b61445e81613df4565b82525050565b60006144708383614455565b60208301905092915050565b6000602082019050919050565b600061449482614429565b61449e8185614434565b93506144a983614445565b8060005b838110156144da5781516144c18882614464565b97506144cc8361447c565b9250506001810190506144ad565b5085935050505092915050565b600060208201905081810360008301526145018184614489565b905092915050565b600067ffffffffffffffff82111561452457614523614167565b5b602082029050602081019050919050565b600061454861454384614509565b6141c7565b9050808382526020820190506020840283018581111561456b5761456a61407f565b5b835b8181101561459457806145808882613e1d565b84526020840193505060208101905061456d565b5050509392505050565b600082601f8301126145b3576145b2614075565b5b81356145c3848260208601614535565b91505092915050565b600080604083850312156145e3576145e2613dca565b5b600083013567ffffffffffffffff81111561460157614600613dcf565b5b61460d8582860161459e565b925050602083013567ffffffffffffffff81111561462e5761462d613dcf565b5b61463a85828601614277565b9150509250929050565b600081519050919050565b600082825260208201905092915050565b6000819050602082019050919050565b61467981613e32565b82525050565b600061468b8383614670565b60208301905092915050565b6000602082019050919050565b60006146af82614644565b6146b9818561464f565b93506146c483614660565b8060005b838110156146f55781516146dc888261467f565b97506146e783614697565b9250506001810190506146c8565b5085935050505092915050565b6000602082019050818103600083015261471c81846146a4565b905092915050565b6000806040838503121561473b5761473a613dca565b5b600083013567ffffffffffffffff81111561475957614758613dcf565b5b61476585828601614277565b925050602083013567ffffffffffffffff81111561478657614785613dcf565b5b61479285828601614277565b9150509250929050565b60006147a782613dd4565b9050919050565b6147b78161479c565b81146147c257600080fd5b50565b6000813590506147d4816147ae565b92915050565b600080604083850312156147f1576147f0613dca565b5b60006147ff858286016147c5565b925050602061481085828601613e53565b9150509250929050565b61482381613df4565b82525050565b600060208201905061483e600083018461481a565b92915050565b61484d81613f57565b811461485857600080fd5b50565b60008135905061486a81614844565b92915050565b6000806040838503121561488757614886613dca565b5b600061489585828601613e1d565b92505060206148a68582860161485b565b9150509250929050565b600080604083850312156148c7576148c6613dca565b5b60006148d585828601613e53565b92505060206148e685828601613e1d565b9150509250929050565b6000806040838503121561490757614906613dca565b5b600061491585828601613e53565b925050602061492685828601613e53565b9150509250929050565b600060ff82169050919050565b61494681614930565b811461495157600080fd5b50565b6000813590506149638161493d565b92915050565b6000819050919050565b61497c81614969565b811461498757600080fd5b50565b60008135905061499981614973565b92915050565b6000806000606084860312156149b8576149b7613dca565b5b60006149c686828701614954565b93505060206149d78682870161498a565b92505060406149e88682870161498a565b9150509250925092565b600080600080600060808688031215614a0e57614a0d613dca565b5b6000614a1c88828901613e53565b9550506020614a2d88828901613e53565b9450506040614a3e88828901613e53565b935050606086013567ffffffffffffffff811115614a5f57614a5e613dcf565b5b614a6b88828901614084565b92509250509295509295909350565b6000604082019050614a8f600083018561481a565b614a9c6020830184613ea8565b9392505050565b600080600060608486031215614abc57614abb613dca565b5b6000614aca86828701613e1d565b935050602084013567ffffffffffffffff811115614aeb57614aea613dcf565b5b614af786828701614277565b925050604084013567ffffffffffffffff811115614b1857614b17613dcf565b5b614b2486828701614277565b9150509250925092565b60008060408385031215614b4557614b44613dca565b5b6000614b5385828601613e1d565b9250506020614b6485828601613e1d565b9150509250929050565b600080600080600060a08688031215614b8a57614b89613dca565b5b6000614b9888828901613e1d565b9550506020614ba988828901613e1d565b9450506040614bba88828901613e53565b9350506060614bcb88828901613e53565b925050608086013567ffffffffffffffff811115614bec57614beb613dcf565b5b614bf88882890161432c565b9150509295509295909350565b7f455243313135353a2062616c616e636520717565727920666f7220746865207a60008201527f65726f2061646472657373000000000000000000000000000000000000000000602082015250565b6000614c61602b83613f98565b9150614c6c82614c05565b604082019050919050565b60006020820190508181036000830152614c9081614c54565b9050919050565b7f4e487b7100000000000000000000000000000000000000000000000000000000600052602260045260246000fd5b60006002820490506001821680614cde57607f821691505b60208210811415614cf257614cf1614c97565b5b50919050565b7f41646d696e436f6e74726f6c3a204d757374206265206f776e6572206f72206160008201527f646d696e00000000000000000000000000000000000000000000000000000000602082015250565b6000614d54602483613f98565b9150614d5f82614cf8565b604082019050919050565b60006020820190508181036000830152614d8381614d47565b9050919050565b7f5075626c6963206d696e742069732063757272656e746c7920636c6f73656400600082015250565b6000614dc0601f83613f98565b9150614dcb82614d8a565b602082019050919050565b60006020820190508181036000830152614def81614db3565b9050919050565b7f43616e206f6e6c79206d696e74206f6e6520746f6b656e000000000000000000600082015250565b6000614e2c601783613f98565b9150614e3782614df6565b602082019050919050565b60006020820190508181036000830152614e5b81614e1f565b9050919050565b7f4d617820737570706c7920726561636865640000000000000000000000000000600082015250565b6000614e98601283613f98565b9150614ea382614e62565b602082019050919050565b60006020820190508181036000830152614ec781614e8b565b9050919050565b6000606082019050614ee3600083018661481a565b614ef0602083018561481a565b614efd6040830184613ea8565b949350505050565b600081519050614f1481614844565b92915050565b600060208284031215614f3057614f2f613dca565b5b6000614f3e84828501614f05565b91505092915050565b7f4e487b7100000000000000000000000000000000000000000000000000000000600052601160045260246000fd5b6000614f8182613e32565b9150614f8c83613e32565b9250827fffffffffffffffffffffffffffffffffffffffffffffffffffffffffffffffff03821115614fc157614fc0614f47565b5b828201905092915050565b7f4f776e61626c653a2063616c6c6572206973206e6f7420746865206f776e6572600082015250565b6000615002602083613f98565b915061500d82614fcc565b602082019050919050565b6000602082019050818103600083015261503181614ff5565b9050919050565b7f455243313135353a207472616e736665722063616c6c6572206973206e6f742060008201527f6f776e6572206e6f7220617070726f7665640000000000000000000000000000602082015250565b6000615094603283613f98565b915061509f82615038565b604082019050919050565b600060208201905081810360008301526150c381615087565b9050919050565b7f4e487b7100000000000000000000000000000000000000000000000000000000600052603260045260246000fd5b600061510482613e32565b91507fffffffffffffffffffffffffffffffffffffffffffffffffffffffffffffffff82141561513757615136614f47565b5b600182019050919050565b7f455243313135353a206163636f756e747320616e6420696473206c656e67746860008201527f206d69736d617463680000000000000000000000000000000000000000000000602082015250565b600061519e602983613f98565b91506151a982615142565b604082019050919050565b600060208201905081810360008301526151cd81615191565b9050919050565b7f4d696e74206e6f7420616c6c6f77656400000000000000000000000000000000600082015250565b600061520a601083613f98565b9150615215826151d4565b602082019050919050565b60006020820190508181036000830152615239816151fd565b9050919050565b600061524b82613e32565b915061525683613e32565b9250817fffffffffffffffffffffffffffffffffffffffffffffffffffffffffffffffff048311821515161561528f5761528e614f47565b5b828202905092915050565b7f4e487b7100000000000000000000000000000000000000000000000000000000600052601260045260246000fd5b60006152d482613e32565b91506152df83613e32565b9250826152ef576152ee61529a565b5b828204905092915050565b7f455243313135353a2063616c6c6572206973206e6f74206f776e6572206e6f7260008201527f20617070726f7665640000000000000000000000000000000000000000000000602082015250565b6000615356602983613f98565b9150615361826152fa565b604082019050919050565b6000602082019050818103600083015261538581615349565b9050919050565b7f4f776e61626c653a206e6577206f776e657220697320746865207a65726f206160008201527f6464726573730000000000000000000000000000000000000000000000000000602082015250565b60006153e8602683613f98565b91506153f38261538c565b604082019050919050565b60006020820190508181036000830152615417816153db565b9050919050565b7f455243313135353a206d696e7420746f20746865207a65726f2061646472657360008201527f7300000000000000000000000000000000000000000000000000000000000000602082015250565b600061547a602183613f98565b91506154858261541e565b604082019050919050565b600060208201905081810360008301526154a98161546d565b9050919050565b60006040820190506154c56000830185613ea8565b6154d26020830184613ea8565b9392505050565b7f455243313135353a2069647320616e6420616d6f756e7473206c656e6774682060008201527f6d69736d61746368000000000000000000000000000000000000000000000000602082015250565b6000615535602883613f98565b9150615540826154d9565b604082019050919050565b6000602082019050818103600083015261556481615528565b9050919050565b7f455243313135353a207472616e7366657220746f20746865207a65726f20616460008201527f6472657373000000000000000000000000000000000000000000000000000000602082015250565b60006155c7602583613f98565b91506155d28261556b565b604082019050919050565b600060208201905081810360008301526155f6816155ba565b9050919050565b7f455243313135353a20696e73756666696369656e742062616c616e636520666f60008201527f72207472616e7366657200000000000000000000000000000000000000000000602082015250565b6000615659602a83613f98565b9150615664826155fd565b604082019050919050565b600060208201905081810360008301526156888161564c565b9050919050565b600060408201905081810360008301526156a981856146a4565b905081810360208301526156bd81846146a4565b90509392505050565b7f455243313135353a206275726e2066726f6d20746865207a65726f206164647260008201527f6573730000000000000000000000000000000000000000000000000000000000602082015250565b6000615722602383613f98565b915061572d826156c6565b604082019050919050565b6000602082019050818103600083015261575181615715565b9050919050565b7f455243313135353a206275726e20616d6f756e7420657863656564732062616c60008201527f616e636500000000000000000000000000000000000000000000000000000000602082015250565b60006157b4602483613f98565b91506157bf82615758565b604082019050919050565b600060208201905081810360008301526157e3816157a7565b9050919050565b7f455243313135353a2073657474696e6720617070726f76616c2073746174757360008201527f20666f722073656c660000000000000000000000000000000000000000000000602082015250565b6000615846602983613f98565b9150615851826157ea565b604082019050919050565b6000602082019050818103600083015261587581615839565b9050919050565b60008160601b9050919050565b60006158948261587c565b9050919050565b60006158a682615889565b9050919050565b6158be6158b982613df4565b61589b565b82525050565b6000819050919050565b6158df6158da82613e32565b6158c4565b82525050565b60008160f81b9050919050565b60006158fd826158e5565b9050919050565b600061590f826158f2565b9050919050565b61592761592282613f57565b615904565b82525050565b600061593982896158ad565b60148201915061594982886158ad565b60148201915061595982876158ce565b6020820191506159698286615916565b6001820191506159798285615916565b6001820191506159898284615916565b600182019150819050979650505050505050565b600081905092915050565b7f19457468657265756d205369676e6564204d6573736167653a0a333200000000600082015250565b60006159de601c8361599d565b91506159e9826159a8565b601c82019050919050565b6000819050919050565b615a0f615a0a82614969565b6159f4565b82525050565b6000615a20826159d1565b9150615a2c82846159fe565b60208201915081905092915050565b615a4481614969565b82525050565b615a5381614930565b82525050565b6000608082019050615a6e6000830187615a3b565b615a7b6020830186615a4a565b615a886040830185615a3b565b615a956060830184615a3b565b95945050505050565b7f5472616e73666572206e6f7420616c6c6f776564000000000000000000000000600082015250565b6000615ad4601483613f98565b9150615adf82615a9e565b602082019050919050565b60006020820190508181036000830152615b0381615ac7565b9050919050565b600081519050919050565b600082825260208201905092915050565b6000615b3182615b0a565b615b3b8185615b15565b9350615b4b818560208601613fa9565b615b5481613fdc565b840191505092915050565b600060a082019050615b74600083018861481a565b615b81602083018761481a565b615b8e6040830186613ea8565b615b9b6060830185613ea8565b8181036080830152615bad8184615b26565b90509695505050505050565b600081519050615bc881613efe565b92915050565b600060208284031215615be457615be3613dca565b5b6000615bf284828501615bb9565b91505092915050565b60008160e01c9050919050565b600060033d1115615c275760046000803e615c24600051615bfb565b90505b90565b600060443d1015615c3a57615cbd565b615c42613dc0565b60043d036004823e80513d602482011167ffffffffffffffff82111715615c6a575050615cbd565b808201805167ffffffffffffffff811115615c885750505050615cbd565b80602083010160043d038501811115615ca5575050505050615cbd565b615cb482602001850186614196565b82955050505050505b90565b7f455243313135353a207472616e7366657220746f206e6f6e204552433131353560008201527f526563656976657220696d706c656d656e746572000000000000000000000000602082015250565b6000615d1c603483613f98565b9150615d2782615cc0565b604082019050919050565b60006020820190508181036000830152615d4b81615d0f565b9050919050565b7f455243313135353a204552433131353552656365697665722072656a6563746560008201527f6420746f6b656e73000000000000000000000000000000000000000000000000602082015250565b6000615dae602883613f98565b9150615db982615d52565b604082019050919050565b60006020820190508181036000830152615ddd81615da1565b9050919050565b6000615def82613e32565b9150615dfa83613e32565b925082821015615e0d57615e0c614f47565b5b828203905092915050565b7f4e487b7100000000000000000000000000000000000000000000000000000000600052603160045260246000fd5b600060a082019050615e5c600083018861481a565b615e69602083018761481a565b8181036040830152615e7b81866146a4565b90508181036060830152615e8f81856146a4565b90508181036080830152615ea38184615b26565b9050969550505050505056fea2646970667358221220cb6f6e87b579c314de652de55d5908d5104cde66137ff403b49d4d8c53e5878c64736f6c634300080c0033",
  "immutableReferences": {},
  "source": "// SPDX-License-Identifier: MIT\n\npragma solidity >= 0.8.12;\n\nimport \"@openzeppelin/contracts/token/ERC1155/ERC1155.sol\";\nimport \"@openzeppelin/contracts/token/ERC20/IERC20.sol\";\nimport \"@manifoldxyz/royalty-registry-solidity/contracts/specs/IEIP2981.sol\";\nimport \"@manifoldxyz/libraries-solidity/contracts/access/AdminControl.sol\";\n\n\n//////////////////////////////////////////////////////////////////////////////////////////\n//                                                                                      //\n//   @@@@@@@@@@@@@@@@@@@@@@@@@@@@@@@@@@@@@@@@@@@@@@@@@@@@@@@@@@@@@@@@@@@@@@@@@@@@@@@@   //\n//   @@@@@@@@@@@@@@@@@@@@@@@@@@@@@@@@@@@@@@@@@@@@@@@@@@@@@@@@@@@@@@@@@@@@@@@@@@@@@@@@   //\n//   @@@@@@@@@@@@@@@@@@@@@@@@@@@@@@@@@@@@@@@@@@@@@@@@@@@@@@@@@@@@@@@@@@@@@@@@@@@@@@@@   //\n//   @@@@@@@@@@@@@@@@@@@@@@@@@@@@@@@@@@@@@@@@@@@@@@@@@@@@@@@@@@@@@@@@@@@@@@@@@@@@@@@@   //\n//   @@@@@@@@@@@@@@@@@@@@@@@@@@@@@@@&,               /&&@@@@@@@@@@@@@@@@@@@@@@@@@@@@@   //\n//   @@@@@@@@@@@@@@@@@@@@@@@@&&                            .@@@@@@@@@@@@@@@@@@@@@@@@@   //\n//   @@@@@@@@@@@@@@@@@@@@@@                                    .@@@@@@@@@@@@@@@@@@@@@   //\n//   @@@@@@@@@@@@@@@@@@&            %&@@@@@@@@@@@@@@@@/           ,&@@@@@@@@@@@@@@@@@   //\n//   @@@@@@@@@@@@@@@@#         /@@@@@@@@@@@@@@@@@@@@@@@@@@@          @@@@@@@@@@@@@@@@   //\n//   @@@@@@@@@@@@@@%        /@@@@@@@@@@@@@@@@@@@@@@@@@@@@@@@@@         &@@@@@@@@@@@@@   //\n//   @@@@@@@@@@@@@        &@@@@@@@@%@@@@@@@@@@@@@@@@@@@@@@@@@@@@,       (@@@@@@@@@@@@   //\n//   @@@@@@@@@@@@       /@@@@@@@@.    #@@@@@@@@@@@@@    #@@@@@@@@@       .@@@@@@@@@@@   //\n//   @@@@@@@@@@@       @@@@@@@@          @@@@@@@@/         &@@@@@@@.      ,@@@@@@@@@@   //\n//   @@@@@@@@@&       @@@@@@@@@,           #@@@            &@@@@@@@&.      &@@@@@@@@@   //\n//   @@@@@@@@@@      .@@@@@@@@@@@&            @         /@@@@@@@@@@@@       &@@@@@@@@   //\n//   @@@@@@@@@,      @@@@@@@@@@@@@@&,           #/    @@@@@@@@@@@@@@@       @@@@@@@@@   //\n//   @@@@@@@@@.      @@@@@@@@@@@@@@@@@@            @@@@@@@@@@@@@@@@@@,      @@@@@@@@@   //\n//   @@@@@@@@@*      @@@@@@@@@@@@@@@@   &,           #@@@@@@@@@@@@@@@       @@@@@@@@@   //\n//   @@@@@@@@@@       @@@@@@@@@@@@/       .&            @@@@@@@@@@@@@       &@@@@@@@@   //\n//   @@@@@@@@@@.      #@@@@@@@@&            @@,           #@@@@@@@@&       &@@@@@@@@@   //\n//   @@@@@@@@@@&       #@@@@@@,          /@@@@@@&          &@@@@@@@       /@@@@@@@@@@   //\n//   @@@@@@@@@@@@       .@@@@@@@@      @@@@@@@@@@@@,    .@@@@@@@@@       /@@@@@@@@@@@   //\n//   @@@@@@@@@@@@@.       /@@@@@@@&,(@@@@@@@@@@@@@@@@@@@@@@@@@@&        &@@@@@@@@@@@@   //\n//   @@@@@@@@@@@@@@@         @@@@@@@@@@@@@@@@@@@@@@@@@@@@@@@@&        .&@@@@@@@@@@@@@   //\n//   @@@@@@@@@@@@@@@@@          &@@@@@@@@@@@@@@@@@@@@@@@@@(         .@@@@@@@@@@@@@@@@   //\n//   @@@@@@@@@@@@@@@@@@&.           .%&@@@@@@@@@@@@@@%            %@@@@@@@@@@@@@@@@@@   //\n//   @@@@@@@@@@@@@@@@@@@@@@.                                   #@@@@@@@@@@@@@@@@@@@@@   //\n//   @@@@@@@@@@@@@@@@@@@@@@@@@@*                           &@@@@@@@@@@@@@@@@@@@@@@@@@   //\n//   @@@@@@@@@@@@@@@@@@@@@@@@@@@@@@@@&*            .#&&@@@@@@@@@@@@@@@@@@@@@@@@@@@@@@   //\n//   @@@@@@@@@@@@@@@@@@@@@@@@@@@@@@@@@@@@@@@@@@@@@@@@@@@@@@@@@@@@@@@@@@@@@@@@@@@@@@@@   //\n//   @@@@@@@@@@@@@@@@@@@@@@@@@@@@@@@@@@@@@@@@@@@@@@@@@@@@@@@@@@@@@@@@@@@@@@@@@@@@@@@@   //\n//   @@@@@@@@@@@@@@@@@@@@@@@@@@@@@@@@@@@@@@@@@@@@@@@@@@@@@@@@@@@@@@@@@@@@@@@@@@@@@@@@   //\n//                                                                                      //\n//////////////////////////////////////////////////////////////////////////////////////////\n\ncontract GRAVITY is ERC1155, AdminControl {\n    \n    mapping(uint256 => mapping(address => bool)) public _tokenClaimed;\n    mapping(uint256 => string) _uris;\n    mapping(uint256 => bool) _transferAllowed;\n    string private _name = \"GRAVITY\";\n\n    uint256 public _ashPrice = 55*10**18; //55 Ash\n    uint256 private _royaltyAmount; //in % \n    uint256 public _maxSupply = 100;\n    uint256 public _supply = 0;\n    uint256 public _activeToken;\n\n    address public _ashContract = 0x64D91f12Ece7362F91A6f8E7940Cd55F05060b92;\n    address private _royalties_recipient;\n    address private _signer;\n\n    bool public _ALMintOpened = false;\n    bool public _publicMintOpened = false;\n\n    \n    constructor () ERC1155(\"\") {\n        _activeToken=1;\n        _royalties_recipient = payable(msg.sender);\n        _royaltyAmount = 10;\n    } \n\n    function supportsInterface(bytes4 interfaceId)\n        public\n        view\n        virtual\n        override(ERC1155, AdminControl)\n        returns (bool)\n    {\n        return\n        AdminControl.supportsInterface(interfaceId) ||\n        ERC1155.supportsInterface(interfaceId) ||\n        interfaceId == type(IEIP2981).interfaceId ||\n        super.supportsInterface(interfaceId);\n    }\n\n    function mintAllowed( uint8 v, bytes32 r, bytes32 s)internal view returns(bool){\n        return(\n            _signer ==\n                ecrecover(\n                    keccak256(\n                        abi.encodePacked(\n                            \"\\x19Ethereum Signed Message:\\n32\",\n                            keccak256(\n                                abi.encodePacked(\n                                    msg.sender,\n                                    address(this),\n                                    _activeToken,\n                                    _ALMintOpened,\n                                    _tokenClaimed[_activeToken][msg.sender],\n                                    _supply < _maxSupply\n                                )\n                            )\n                        )\n                    )\n                , v, r, s)\n        );\n    }\n\n    function setAshAddress(address ashAddress) external adminRequired{\n        _ashContract = ashAddress;\n    }\n\n    function setSigner (address signer) external adminRequired{\n        _signer = signer;\n    }\n\n    function name() public view returns (string memory) {\n        return _name;\n    }\n\n    function ALMint(\n        uint8 v,\n        bytes32 r, \n        bytes32 s\n    ) external {\n        require(mintAllowed(v, r, s), \"Mint not allowed\");\n        IERC20(_ashContract).transferFrom(msg.sender, _royalties_recipient, _ashPrice);\n        _mint(msg.sender ,_activeToken ,1 ,\"0x00\");\n        _tokenClaimed[_activeToken][msg.sender] = true;\n        _supply += 1;\n    }\n\n    function publicMint() external {\n        require( _publicMintOpened,  \"Public mint is currently closed\");\n        require(!_tokenClaimed[_activeToken][msg.sender],  \"Can only mint one token\");\n        require(_supply < _maxSupply, \"Max supply reached\");\n        IERC20(_ashContract).transferFrom(msg.sender, _royalties_recipient, _ashPrice);\n        _mint(msg.sender, _activeToken, 1, \"0x00\");\n        _tokenClaimed[_activeToken][msg.sender] = true;\n        _supply += 1;\n    }\n\n    function mintBatch(\n        address to,\n        uint256[] memory ids,\n        uint256[] memory amounts\n    )external adminRequired{\n        uint256 quantity = 0; \n        for(uint256 i = 0 ; i < amounts.length; i++){\n            quantity += amounts[i];\n        }\n        require(_supply < _maxSupply, \"Max supply reached\");\n        _mintBatch(to, ids, amounts, \"0x0\");\n        _supply += quantity;\n    }\n\n    function initateNewDrop(\n        uint256 tokenId, \n        uint256 newPrice, \n        uint256 maxSupply,  \n        string calldata newURI\n    ) external adminRequired{\n        _activeToken = tokenId;\n        _ashPrice = newPrice;\n        _maxSupply = maxSupply;\n        _uris[tokenId] = newURI;\n        _supply = 0;\n    }\n\n    function setActiveToken(uint256 tokenId)external adminRequired{\n        _activeToken = tokenId;\n    }\n\n    function toggleALMintState()external adminRequired{\n        _ALMintOpened = !_ALMintOpened;\n    }\n\n    function togglePublicMintState()external adminRequired{\n        _publicMintOpened = !_publicMintOpened;\n    }\n\n    function addURI(\n        uint256 tokenId,\n        string calldata newURI\n    ) external adminRequired{\n        _uris[tokenId] = newURI;\n    }\n\n    function editURI(uint256 tokenId, string calldata newURI) external adminRequired {\n        _uris[tokenId] = newURI;\n    }\n\n    function uri(uint256 tokenId) public view virtual override returns (string memory) {\n        return _uris[tokenId];\n    }\n\n    function burn(uint256 tokenId, uint256 quantity) external {\n        _burn(msg.sender, tokenId, quantity);\n    }\n\n    function burnBatch(\n        uint256[] memory ids,\n        uint256[] memory amounts\n    )external{\n        _burnBatch(msg.sender, ids, amounts);\n    }\n\n    function activateTransfer(uint256 tokenId)external adminRequired{\n        _transferAllowed[tokenId] = true;\n    }\n\n    function _beforeTokenTransfer(\n        address operator,\n        address from,\n        address to,\n        uint256[] memory ids,\n        uint256[] memory amounts,\n        bytes memory data\n    ) internal override {\n        for(uint256 i=0; i< ids.length; i++){\n            require(from == address(0)  || _transferAllowed[ids[i]], \"Transfer not allowed\");\n        }\n    }\n\n    function setRoyalties(address payable _recipient, uint256 _royaltyPerCent) external adminRequired {\n        _royalties_recipient = _recipient;\n        _royaltyAmount = _royaltyPerCent;\n    }\n\n    function royaltyInfo(uint256 salePrice) external view returns (address, uint256) {\n        if(_royalties_recipient != address(0)){\n            return (_royalties_recipient, (salePrice * _royaltyAmount) / 100 );\n        }\n        return (address(0), 0);\n    }\n\n    function withdraw(address recipient) external adminRequired {\n        payable(recipient).transfer(address(this).balance);\n    }\n\n}",
  "sourcePath": "/Users/bct/Documents/Dev/NFT_dev/Gravity/contracts/Gravity.sol",
  "compiler": {
    "name": "solc",
    "version": "0.8.12+commit.f00d7308.Emscripten.clang"
  },
  "schemaVersion": "3.4.4",
  "updatedAt": "2022-06-04T12:30:32.921Z",
  "devdoc": {
    "kind": "dev",
    "methods": {
      "approveAdmin(address)": {
        "details": "See {IAdminControl-approveAdmin}."
      },
      "balanceOf(address,uint256)": {
        "details": "See {IERC1155-balanceOf}. Requirements: - `account` cannot be the zero address."
      },
      "balanceOfBatch(address[],uint256[])": {
        "details": "See {IERC1155-balanceOfBatch}. Requirements: - `accounts` and `ids` must have the same length."
      },
      "getAdmins()": {
        "details": "See {IAdminControl-getAdmins}."
      },
      "isAdmin(address)": {
        "details": "See {IAdminControl-isAdmin}."
      },
      "isApprovedForAll(address,address)": {
        "details": "See {IERC1155-isApprovedForAll}."
      },
      "owner()": {
        "details": "Returns the address of the current owner."
      },
      "renounceOwnership()": {
        "details": "Leaves the contract without owner. It will not be possible to call `onlyOwner` functions anymore. Can only be called by the current owner. NOTE: Renouncing ownership will leave the contract without an owner, thereby removing any functionality that is only available to the owner."
      },
      "revokeAdmin(address)": {
        "details": "See {IAdminControl-revokeAdmin}."
      },
      "safeBatchTransferFrom(address,address,uint256[],uint256[],bytes)": {
        "details": "See {IERC1155-safeBatchTransferFrom}."
      },
      "safeTransferFrom(address,address,uint256,uint256,bytes)": {
        "details": "See {IERC1155-safeTransferFrom}."
      },
      "setApprovalForAll(address,bool)": {
        "details": "See {IERC1155-setApprovalForAll}."
      },
      "transferOwnership(address)": {
        "details": "Transfers ownership of the contract to a new account (`newOwner`). Can only be called by the current owner."
      }
    },
    "version": 1
  },
  "userdoc": {
    "kind": "user",
    "methods": {},
    "version": 1
  }
}